:020000041000EA
:1000000000B5324B212058609868022188439860DF
:10001000D860186158612E4B002199600221596106
:100020000121F02299502B49196001219960352056
:1000300000F044F80222904214D00621196600F024
:1000400034F8196E01211966002018661A6600F04E
:100050002CF8196E196E196E052000F02FF8012189
:100060000842F9D1002199601B49196000215960AB
:100070001A491B48016001219960EB211966A021F2
:10008000196600F012F800219960164914480160C1
:100090000121996001BC002800D000471248134993
:1000A000086003C880F30888084703B5996A0420EC
:1000B0000142FBD001200142F8D103BD02B5186610
:1000C0001866FFF7F2FF186E186E02BD00000240BE
:1000D000000000180000070000035F00212200005C
:1000E000F4000018222000A00001001008ED00E03C
:1000F00000000000000000000000000074B24E7A12
:1001000000200420F7010010C3010010C5010010F9
:10011000C1010010C1010010C1010010C101001097
:10012000C1010010C1010010C1010010C701001081
:10013000C1010010C1010010C9010010CB01001065
:10014000CD010010CD010010CD010010CD01001037
:10015000CD010010CD010010CD010010CD01001027
:10016000CD010010CD010010CD010010CD01001017
:10017000CD010010CD010010CD010010CD01001007
:10018000CD010010CD010010CD010010CD010010F7
:10019000CD010010CD010010CD010010CD010010E7
:1001A000CD010010CD010010CD010010CD010010D7
:1001B000CD010010CD010010CD010010CD010010C7
:1001C00000BE00BE00BE00BE00BE00BE00F04BF888
:1001D000103800BEF2EB8871C0ED0010E8ED0010A1
:1001E0003402001090A31AE700202149086006C8D5
:1001F00081F3088810471F48006800282FD10DA4FC
:100200000ECC002902D000F012F8F9E71A491B4A77
:10021000002000E001C19142FCD1194988471949E9
:1002200088471949884700BEFDE701C901C29A42C3
:10023000FBD37047E8ED0010C0000020D003002081
:1002400004F10010000004200000042004F100105C
:1002500000100420001004200000000070470B482C
:100260000AF016FC0047EFF30580C0B270470000AB
:1002700008ED00E0000000D0E0030020A43F0020D3
:1002800051A200100904001041A3001057560000AD
:1002900006005250ABB36053F0EB00100600525012
:1002A000861C030200EC0010060052505422A29D4E
:1002B00020EC001005005250DE65F46804F10010D7
:1002C000F8B5C04610B5064C2378002B07D1054B76
:1002D000002B02D0044800E000BF0123237010BDB2
:1002E000E00400200000000068D90010044B10B5A5
:1002F000002B03D00349044800E000BF10BDC046F6
:1003000000000000E404002068D90010074B0F2211
:100310008383002383612533C254054BC384054B7B
:100320004361054B036100207047C046EA050000A9
:1003300045580000690300106103001010B50C005F
:1003400005490DF031FA0023002802D1034B236048
:100350000123180010BDC04668D90010C0A80701CD
:1003600010B506F043FC10BD10B50C000BF0D4FD29
:10037000002802D10820404210BD0BF0D5FD002816
:10038000F8D120890CF058FF002802D10BF046FE6E
:10039000ECE7200000210CF055FF0020ECE7C04600
:1003A000F8B50D4E050033680C000020002B00D07E
:1003B000F8BD002901D10120FAE7C1220020520036
:1003C00000F024FE071EF6D02200290040680AF043
:1003D000B3FE01203760EBE71818002010B50400C9
:1003E0000A8908000023210000F0D6FF10BDC04696
:1003F00010B5044C2068002803D000F067FF0023EC
:10040000236010BD1818002070B584B00BF088F878
:100410000CF064FF00F03CFA214D24232800062252
:1004200020491E30EA5401260AF086FE2323EE54AA
:100430001D4B1E4C02931E4B2100019300231D4AAD
:10044000009328001C4B00F0AFFC00F013FD2523A7
:10045000EB5C1E4200D1FEE7184E300008F078FB3E
:100460000028FAD1164E32003521200008F080FC19
:100470000028F8D1002608F05BF9124C0BF0CEFDF5
:100480002068002808D0290007F0B0FD206800F09F
:100490001DFF26600CF0CCFC05F074F9EEE7C046B9
:1004A0007410002074D90010A17100109CD90010A4
:1004B0000D030010A0D9001098D9001080D90010A9
:1004C0003D03001018180020002070477047C046F8
:1004D00010B509F08DFB002905D0FA220023920007
:1004E0000AF046FB10BDFA2189000AF0FFFAF9E78D
:1004F0000048704708DA0010012803D8024B80003A
:10050000C05870470020FCE700DA001070B50028E2
:100510004FD005281DD0042854D82D4B8000C55835
:1005200028000DF085F904001F2849D800284BD079
:1005300000232848821CE95C0133118002329C426E
:10054000F9D8C023013464009B001C43A4B204808A
:1005500070BD2149214B0C781E4822099A5C4280CB
:100560000F2214401C5D84804C78250914401C5DCA
:100570005D5D04818C78C580250914401C5D5D5D3E
:100580008481CC784581250914401C5D5D5D048221
:100590000C79C581250914401C5D497984820A4083
:1005A0000C091C5D5D5D9B5CC48245820C4C038321
:1005B000CDE7C1240B4B07481B88A4004380C6E746
:1005C0001F24B3E70020C3E7074C0248BFE7C0463B
:1005D000C0DA001014050020A4D90010ACD9001016
:1005E0001A030000FCD900100203000040BA80B2D8
:1005F0007047C04600BA7047F0B5C646040000B563
:100600000800884616000DF013F9051E19D023784E
:10061000002B18D0A6192218964214D342461778F8
:1006200006E063780134002B0DD0601986420AD3AE
:100630009F42F6D12A00414620000DF027F90028FC
:10064000EFD1200000E0002004BC9046F0BDC04681
:10065000F0B583B06B469E1D0023338001331F002D
:100660000740184205D0002930DD03780139737046
:10067000013001292ADD023901240D00821CA54325
:100680005519030000221C88023312199D42FAD129
:100690004B085C1C64005B000019C91A012901D1D8
:1006A0000378337033889A18100C1204120C8218D5
:1006B000100C1204120C8018002F04D00306000442
:1006C0001B0C000E184380B203B0F0BD0022E5E71A
:1006D000F0B54F464646D646C0B51C68089B160086
:1006E0001A68050013041B0C120C9B182204120C30
:1006F000240C9B18E3181C0C1B041B0CE3181C0C8B
:100700001B041B0C0F00E418002826D00023984679
:1007100001339946FE339A4669896868FFF798FF66
:100720004A460019040C6B890004000C24181A4274
:1007300008D043465340524698462306240A1B0CD1
:1007400014401C432D68002DE6D14346002B04D0F5
:10075000230624041B0C240E1C43B8B2FFF746FFEB
:1007600005003000FFF742FF2D182C19200C24043F
:10077000240C0419200C2404240C0019C04380B25A
:100780001CBC90469946A246F0BDC04610B582B04A
:10079000049C0094FFF79CFF02B010BDF0B583B03D
:1007A0006B469E1D0023338001331A00024018421D
:1007B00005D000292CD0037801397370013001294C
:1007C0002DDD023901250F00831CAF43DD19040024
:1007D000002327880234DB19A542FAD14C08651C96
:1007E0006D0064004019091B012901D101783170A5
:1007F0003088C018030C0004000C1B18180C1B04D4
:100800001B0CC018002A04D1C04380B203B0F0BD55
:100810000020030600041B0C000E1843F4E700231D
:10082000E2E7C046F0B5C646040000B500282AD06D
:10083000FF23002600270125984661896068FFF79D
:1008400007FFC019070C63890004000C3F181D4204
:1008500007D042463B06380A1B0C104003431F00DA
:100860006E402468002CE8D1002E09D03B063804E5
:100870001B0C000E1843C04380B204BC9046F0BD70
:10088000F84380B2F9E70148F7E7C046FFFF0000F0
:1008900010B500F0CFFD00F00BF800F0F7F900F014
:1008A00081FA04F0A3FF00F04FFE04F02FFF10BD0B
:1008B00003220B4B0021033393430A4A0A48136077
:1008C000C822D20019719918016001201A600871BC
:1008D0000649995006490B60AA230649CA52704737
:1008E000C81E0020C8110020CC1100204006400680
:1008F000E00F0020E4390020F0B5DE4657464E46B2
:100900004546E0B583B000282BD0830720D10300F3
:100910003F4A083B12689A421AD83E490C300C688C
:10092000844215D31979002912D0C8211888C9002A
:1009300088420DD85E8801968E4209D89D1AAFB2C2
:100940009119BB468C46B74212D00988B9420FD0E4
:10095000FFF7BAFDB02230498B5A01338B52FFF7B3
:10096000B5FD03B03CBC90469946A246AB46F0BDEF
:100970001618B44202D071885945E9D10021197185
:100980002649009109688846994202D998460099FB
:100990000B6021498A46AC21894651464D464F4657
:1009A000495B5546091A5944E953B34214D0317989
:1009B000002911D1B4420FD0464520D0C824308838
:1009C000E40018803188A14206D05C4651184C8062
:1009D0005988019151188C466345C2D06146097906
:1009E0000029BED143450ED061460880C8211B882E
:1009F000C9008B42B5D0D218019B5380B1E7009952
:100A000098460B60DAE7644600990C60ECE7C04654
:100A1000C8110020CC110020E4390020E00F002094
:100A2000F0B5D6464F464646484BCA1C0400C0B5F2
:100A300013400B2B48D9C822D200934247D8994281
:100A400045D8434A1268A24243D842490968A142A4
:100A50003FD9082149428C46A44460460788614634
:100A60003E00891A083EB0B289B2451AADB282463C
:100A70009D422CD365D0D01980460079002837D10B
:100A800040460088344F814608003D6808301818F9
:100A900080B2454557D0151800272F714F462F803B
:100AA000674669803880C8272D88FF00BD4201D085
:100AB00052195080AC22554628484E1B815A89193C
:100AC0005B18835220000EE00C239942B9D9002014
:100AD00009E0FFF7F9FCB02220498B5A01338B5211
:100AE000FFF7F4FC20001CBC90469946A246F0BDDE
:100AF0001426B04698442000A845F4D80800164EA5
:100B000008301818B04680B236681518AE4201D9C0
:100B10004646356000262E7166462F80C8276980BC
:100B200030802D88FF00BD4201D052195080AC2288
:100B300055460A48491B865A71185B188352200093
:100B4000D1E72000CFE715183D60A5E7FCFF0000C6
:100B5000C8110020CC110020E00F0020E439002053
:100B6000F0B5CE46474680B500283CD04249C31C6C
:100B700019400B2934D9C823DB00994233D8884265
:100B800031D83E4BC82299461B68D2009C463C4B4C
:100B9000521A1D6863465B1B9EB21B0490461B0CD9
:100BA000934213D208277F4208E00488FB1A1B19DE
:100BB0008B421AD223002600434507D2E818027957
:100BC000002AF2D0068833004345F7D3A82200203C
:100BD0002C498B5A01338B520CBC90469946F0BD80
:100BE0000C218842CDD90020F6E71427B846884466
:100BF00043451ED30B000833F3189BB2EF183A712C
:100C000001223C80C8247E80038002713A88E4007F
:100C1000A24201D0AA185380AC241A4B1A5B0832A6
:100C20008918AE2289B219539C5A8C420FD299521C
:100C30000DE00123AC21134A0371535AE3189B1BA7
:100C40009BB253520231545A9C4200D253528445B3
:100C500001D00830C0E70C4B1968030004E01B8882
:100C6000EB181A79002A05D08B42F8D14B46083090
:100C70001960B1E71900F9E7FCFF0000E00F002060
:100C8000C8110020E4390020CC1100201F4BF0B522
:100C900000224546984624235746DE464E469B464C
:100CA0009246033204249146194BE0B5194F9C46F5
:100CB000194D1A4BBB4451463A68296049460333E3
:100CC0008B43002C0BD096880021002200E003000B
:100CD00001321960981919002B60A242F7DB6346B4
:100CE00062465C804346043704C39846BB4506D041
:100CF0003A681168D5688C469368D488DBE73CBCB9
:100D000090469946A246AB46F0BDC046983A0020B0
:100D10004410002064DB0010701000201436002006
:100D200070B5082818D8104B8000C558FFF7CCFBC9
:100D3000EB681C68002C11D022681A602A6893881E
:100D4000D18801339BB29380994203D3FFF7BEFB56
:100D5000200070BDD380F9E70024F9E72A681388E2
:100D600001331380F2E7C04664DB001070B50C005D
:100D7000082810D800290ED0074B8000C558FFF76F
:100D8000A3FB2A689388013B9380EB681A68226072
:100D90001C60FFF79BFB70BD64DB00100C20404221
:100DA0007047C0467047C04630B50D002E4904005C
:100DB000096883B000292CD100282AD0079900297E
:100DC00027D0002D47D0002A48D0002B49D02748F3
:100DD00000212061002021606160A160A183253194
:100DE00060540699A1612821605412680899E16055
:100DF0002968002A00D062601B68002B00D0A36025
:100E0000002909D12000079B9847002801D1200024
:100E100000E0002003B030BD2B68002BF2D001931E
:100E20000023684601A9009301F0D4FC01A968469B
:100E300004F07EFF25232A682260E15C203B0B4002
:100E4000052BDFD1002ADDD00B07DBD521002000E8
:100E500005F09EFFD6E7064D002AB6D1044A002BC6
:100E6000B5D1034BB3E7C046DC3900209D0D00101F
:100E7000F0DB0010014B18607047C046DC390020E1
:100E8000021E0DD0074B1868002808D02823C35C29
:100E90000133DBB29B1A5A4253415B421840704700
:100EA0000020FCE7DC390020F0B5C646050000262E
:100EB00000B5002829D00F230227984607E0280014
:100EC0002B6998470136F6B2002C1ED02500FFF79B
:100ED000FBFAAC7B013CE4B2AC73FFF7F7FA002CF1
:100EE00013D16B7B2C681F42E9D142462B7B134008
:100EF000022B0ED0012B11D0002BE3D1280001369C
:100F0000FFF7FAFCF6B2002CE0D1300004BC9046AA
:100F1000F0BD29000820FFF729FFD3E729000720AB
:100F2000FFF724FFCEE7C046F0B5C6460D00804669
:100F30000026002700B544894B899B1BE41B9C427B
:100F400000D91C0043465B682200D8196B683F1922
:100F500099190AF0F1F843466A8936195B89964275
:100F600001D300262D689F4211D0002D17D06B8928
:100F70002A89934223D0424654891289A242DCD165
:100F800042461268002AD8D00620404214E0434668
:100F90001B689846002B18D00027002DE7D1434648
:100FA0005C891B890020A34206D143461868431E72
:100FB000984105234042984304BC9046F0BD2A68FE
:100FC000002AD8D006204042F6E768426841102542
:100FD000404228401038EFE710B5FFF775FA0022BD
:100FE000084B1A70FFF772FA074B1868002803D1F4
:100FF00007E0C068002804D0436F002BF9D001F04F
:101000003BFC10BDE0390020C03A0020F0B5C12300
:101010004F464646D6468046C0B50D00170084B2FE
:101020005B009A423ED00CD81400433BFF3B9C43EC
:10103000012C29D0002630001CBC90469946A246BF
:10104000F0BDA0239B009A42F4D1E31C0324CA1CE8
:10105000A343A2439B189BB21800103080B2934266
:10106000E8D38242E6D8FFF77BFD061EE3D00023DB
:1010700003604346C71813372A4B2904A7430D437F
:1010800047608560C360D6E70720FFF749FE061E6C
:10109000D1D000230581036043604581077343730A
:1010A000C481C8E7002398461F4B00269A460023B8
:1010B0000327994607E043466D1AADB21860002D2C
:1010C000B9D0804600240820FFF72AFE00281BD054
:1010D0005246E31CBB43D31A1A1C9BB2AB4200D945
:1010E0002A1C4B46041903601334104BBC4391B2C5
:1010F000446005814281C360002EDCD16D1AADB21F
:101100000600002DDDD196E7FFF7DEF90122084B3E
:101110001A70FFF7DBF9002E00D18BE73000FFF7E4
:10112000C3FE87E780000100EC050000820001009B
:10113000E039002070B5032604AC20CC0330B04366
:1011400024880E18A6420ED8002D00D02D181800A5
:101150000023036002334373013B456001814181F9
:101160000273C38170BD0020FCE7C04670B5040067
:101170000089884226D9638999422DD92181246822
:10118000CB1A9DB26389081A80B2AB4208D2228979
:10119000ED1A821822812468ADB26389AB42F6D37E
:1011A000227B120704D19D4202D0637B9B070AD5A4
:1011B0002B0420682B43A360002801D0FFF774FEA6
:1011C0000023236070BD63682000191B691889B271
:1011D000FFF726FC0400EBE70D00E1E7030030B564
:1011E00000281CD080225202914218D2002918D027
:1011F00002898CB2A21892B2944210D8057B0120C9
:101200007F2D0DD95D68691A1D001035A94207D3DD
:1012100059605989002064185C811A8100E001201E
:1012200030BD0020FCE7C04610B5002814D0802354
:101230005B02994210D2002910D043898AB29A42A7
:101240000AD844689B1AA4464381038961449A1AC8
:1012500041600281002000E0012010BD0020FCE779
:1012600010B500291DDB002819D000292BD00389D7
:101270008AB2D3189BB29A4211D8047B7F2C08D82B
:101280004468611A416041890381521842810020FB
:1012900006E04468611A04001034A142F2D2012031
:1012A00010BD49420028FAD043898AB29A42F6D842
:1012B00044689B1AA4464381038961449A1A416099
:1012C00002810020ECE70020EAE7C04610B50028C4
:1012D00002D0FFF7E9FD10BD0020FCE7030000206D
:1012E000002B04D01B68013080B2002BFAD170476C
:1012F00010B5041E06D0FFF7E7F8A37B0133A373F4
:10130000FFF7E4F810BDC04610B5002811D0002941
:101310000FD00368002B07D002890C8912190281B3
:1013200018001B68002BF7D10A89038901609B18FC
:10133000038110BD10B50C00002819D0002916D06B
:101340000368002B07D002892189521802811800F6
:101350001B68002BF7D12289038904609B18038145
:10136000FFF7B2F8A37B0133A373FFF7AFF810BD0B
:101370000029FCD0F4E7C04610B5002808D00029A9
:1013800006D002890B899A4202D3FFF7CDFD10BD2A
:1013900010204042FBE7C046E0B54746CE468946AE
:1013A0001900002380B506001700984600282AD0AF
:1013B0004B46002B27D0002A05D124E03668491B74
:1013C00089B2002E1FD07589002901D0A942F5D21B
:1013D0006D1AADB23A1CAF4200D92A1C7368484658
:1013E0009C4695B240442A00614409F0A5FE43465C
:1013F0007F1BEB189BB2BFB298463668002F02D015
:101400000021002EDFD140460CBC90469946E0BD3D
:101410000B0070B5150011891A00FFF7F7FD041EC7
:1014200006D002892B899A4202D32900FFF77CFD5E
:10143000200070BD7047C04610B5037D0400042B2A
:1014400005D0072B0FD00020032B00D010BD2000AB
:1014500003F0D0FA00280AD105232375200003F0F9
:101460001BFD0020F2E703F0C5FA002807D0431C5B
:10147000ECD10822638B002013436383E6E7092342
:101480002375EBE770B50600806F002803D0FFF7E7
:101490001DFF0023B367746F002C18D060682568A7
:1014A00000280CD0FFF712FF21000320FFF75EFC9D
:1014B000002D0AD02C00606825680028F2D1210098
:1014C0000320FFF753FC002DF4D1002373670123A1
:1014D000F46E5B423386002C16D0606825680028C5
:1014E0000CD0FFF7F3FE21000320FFF73FFC002D97
:1014F0000AD02C00606825680028F2D12100032062
:10150000FFF734FC002DF4D1346F002C16D0606846
:10151000256800280CD0FFF7D9FE21000320FFF733
:1015200025FC002D0AD02C00606825680028F2D127
:1015300021000320FFF71AFC002DF4D100236822BC
:10154000F3663367B35270BD7047C04610B50100F3
:101550000120FFF70BFC10BDF8B5CE46474680B51D
:10156000002963D0002866D0037D002B60D1002ABB
:101570002BD0324E3700103733681B68002B03D155
:1015800013E0DB68002B10D0DC8A9442F9D11C6890
:10159000002C04D00D68002D01D0AC42F1D1082000
:1015A00040420CBC90469946F8BD0436BE42E3D199
:1015B0000B68002B00D00360214BC2821A681860B0
:1015C000C26004F06BF80020EBE71E4B80269846C3
:1015D0001A881D4B194F9C4610239946F601B944B1
:1015E000013292B2624514D03D002B681B68002B7B
:1015F00003D111E0DB68002B0ED0DC8A9442F9D1D4
:10160000013EB6B2002EEBD1434602201A80404282
:10161000C7E7C0221202E7E704354D45E5D143464E
:101620001A80002AC4D102204042BAE7074999E74C
:1016300006204042B5E710204042B2E798DB001098
:10164000CC3A0020C4020020FFFF0000F0DB0010B5
:1016500070B5041E35D0057D002D32D10220FFF774
:101660005FFB061E2DD0012223690361E38A027508
:10167000C382627D4275627A05724272E27AC272F8
:10168000A27A827222680260002B0CD0124A136880
:101690009C4204D11CE0DA68944214D01300002B61
:1016A000F9D10023E36021000120FFF75FFB0B4B22
:1016B000B3610B4B1A681E60F26003F0EFFF30005D
:1016C00070BD0026FBE7E268DA600023E360EAE72A
:1016D000E3681360E5E7C046CC3A0020B11E001075
:1016E000C83A00200300F0B5C46A058D466A598ED9
:1016F0000B4F281B80190A1CB94200D93A1C92B220
:10170000821A01D45D85F0BD321B002A03DD002260
:1017100000205A85F7E7A41B00205C85F3E7C0464C
:10172000B4050000F8B5002818D0028D194B5118E7
:1017300089B2994219D91900466A458E164FC46A72
:101740000185F3182A1CBD4209D892B212199A1ABF
:101750000FD4124A41851B1B934210D8F8BD3A1C86
:1017600092B212199A1AF4D503E08A42E3D80B0018
:10177000E2E7331B002B09DD00234385EEE702225D
:10178000438B1343438303F087FBE7E7A41B4485A4
:10179000E4E7C046680B0000B4050000D902000071
:1017A000BB4BF0B545469846DE46424657464E4648
:1017B0001B68E0B501331360B64B87B09B465A46B1
:1017C0001B7801331370B44B1C68002C00D1A1E0CE
:1017D00000239A465B46A27F1B789A4200D153E1D0
:1017E000A3774223227DE35C022A00D123E10B2B65
:1017F00000D91DE19923E55C002D00D158E10133AA
:10180000E35C0B2B00D913E19820A44B5D19013D3B
:101810002978235C8B4200D271E16023E15A0029D0
:1018200000D0A2E0200003F0F5FD002800D1A2E0E6
:10183000227D01270025062A00D1ACE008210800FE
:10184000637A18400590194220D0042A00D052E152
:101850004346226A1B68FA219B1A99469423E6584C
:101860008F4B4900F01809F041F9814500D938E162
:101870009B27FA21E35D8B4849005843801909F002
:1018800035F900230593814500D93FE1676F002FAB
:101890000BD04346226A1B689A1A4023E15E4B0034
:1018A0005B185B009A4200D389E0237D032B00D1B3
:1018B00097E0092B00D0C5E04346226A1B689B1ABB
:1018C000F02B00D894E09023E5582000FFF7DAFDD4
:1018D0005346002B00D1C3E0E268DA60059B002B81
:1018E00000D0C4E02369210001209946E668FFF793
:1018F0003DFA00236C4C2370002D07D00D21484683
:101900004942A8472378002B00D05CE73400002C24
:1019100000D05FE7654F00253C68002C04D11DE036
:101920002500E468002C19D04346226A1B689B1AE4
:10193000F02BF5D9237D012B04D90A2B02D02000EE
:10194000FFF7A0FD002D00D122E1E368EB60E6681F
:1019500021000120FFF70AFA341EE5D107B03CBC94
:1019600090469946A246AB46F0BD200002F074FFB7
:10197000002800D11CE198230022E2549932A35C94
:10198000062B00D954E70133A354227D01270025FB
:10199000062A00D052E7638BDB0606D54346226A4F
:1019A0001B689B1A282B00D93D00002305936DE787
:1019B00039000320FFF7DAF9002E0CD037007868E1
:1019C0003E680028F4D0FFF781FC39000320FFF7C0
:1019D000CDF9002EF2D100236367237D032B00D0C5
:1019E00067E74346226A1B689B1A282B00D96AE7DF
:1019F000002D00D067E7237F627F0133DBB2E5680B
:101A000023779A4211D80023274A237713708C3307
:101A1000E358002B69D0210020699847224B1B789E
:101A2000002B00D0CFE600285FD0A2462C006EE746
:101A300002270125FFE6052B00D8DBE60023012560
:101A4000059323E7002DD6D09022A558012B00D86E
:101A50003EE70A2B00D038E75346002B00D03BE787
:101A60000D4BE2681A60059B002B00D13AE7238BEF
:101A7000626A216D0293E38A20000193231D009383
:101A8000230003F03DF92DE7A246E4683FE7C04696
:101A9000C43A0020AB1E0020C03A0020A8DB001092
:101AA000B84C0A00F8240100BC3A0020D03A0020CB
:101AB0003023E15E4248238E834202D8013319B2BB
:101AC00021864023E35E01278B4200DDB3E6200040
:101AD00003F05CF8002826D0236F002B20D0227D55
:101AE000A9E601233D000593D0E62000A24603F0BD
:101AF000D3F92C000BE7072A00D1A9E655E70133FB
:101B0000DBB223548B4200D293E686E6200003F03A
:101B10001FFC002800D0B9E6E35D0133E355B5E6CC
:101B2000E36E002BDBD0237D022B13D03C22A35E7F
:101B30003E21625EDB109B184222A15C0A1C0C292C
:101B40002DD82049D2B28A5C93401D4A934224DCAE
:101B50004022A3520023482123866033E25A605A70
:101B6000131C824217D84A209BB25B082352618E15
:101B70004A0092B2934200D2225248230022E152FC
:101B80002233E252200003F091FB0127227D52E62E
:101B9000E6683E60DCE6031CE5E70B4BD8E70C2269
:101BA0000849D2B28A5C9340054A9342D0DDF4E7FB
:101BB000200003F071F9002800D0DCE638E6C046CA
:101BC000FE7F000088DB0010FF7F000070B5041E60
:101BD00016D06068256800280CD0FFF777FB21003D
:101BE0000320FFF7C3F8002D0AD02C006068256899
:101BF0000028F2D121000320FFF7B8F8002DF4D11E
:101C000070BDC04610B5041E08D04068002801D041
:101C1000FFF75CFB21000320FFF7A8F810BDC046CA
:101C2000002800D04175704770B505000320FFF70C
:101C300077F8041E06D01022290009F07DFA6068AA
:101C4000FFF756FB200070BD002800D001617047EF
:101C5000002801D08423C1507047C046002801D01D
:101C60008023C1507047C046002801D09023C15046
:101C70007047C046002802D0037D012B00D070477A
:101C80008161FCE7002802D08C23C1504277704765
:101C900010B5002806D0037D012B03D90A2B01D0F3
:101CA000FFF7F0FB10BDC046036810B50C008B4277
:101CB00004D125E0DA68A2421AD01300002BF9D132
:101CC0000023E360237D002B0BD00A2B0CD0012BCB
:101CD0000AD02000FFF7D6FB237D0A2B04D0012B6E
:101CE00002D0638BDA0713D400232375E38210BD7F
:101CF000E268DA600023E360237D002BE5D1F0E7A2
:101D0000CB6803600023E360237D002BDDD1E8E78F
:101D1000022213432000638303F0BEF8E4E7C046C9
:101D2000F0B54E464546DE465746E0B505000E0086
:101D300087B0002861D0037D0A2B00D19EE0026DA0
:101D40009246426A059290228258934602699146D1
:101D5000002B60D1C38A00269846002B64D04D4AE0
:101D60001368834254D1C368136000232C6F9846D4
:101D70000026EB60002C5AD1EC6E002C16D0606867
:101D8000276800280CD0FFF7A1FA21000320FEF7F6
:101D9000EDFF002F0AD03C00606827680028F2D1D0
:101DA00021000320FEF7E2FF002FF4D16C6F002C1E
:101DB00016D06068276800280CD0FFF787FA21004A
:101DC0000320FEF7D3FF002F0AD03C00606827688D
:101DD0000028F2D121000320FEF7C8FF002FF4D124
:101DE000002E3ED129000120FEF7C0FF5B46002BEC
:101DF00003D00D2148464942D84707B03CBC904625
:101E00009946A246AB46F0BDDA68AA423FD013001D
:101E1000002BF9D1A9E7C38A01001F489846FFF7B4
:101E200043FF01221D4B1A702C6F002CA4D0606858
:101E3000276800280CD0FFF749FA21000320FEF79D
:101E400095FF002F98D03C00606827680028F2D1E9
:101E500021000320FEF78AFF002F00D18CE73C0011
:101E6000F2E72B8B51460293434601932B1D0093BF
:101E700028002B00059A02F043FFB3E70100084851
:101E8000FFF712FF29000120FEF770FFB5E7EA68AF
:101E9000DA606AE7CC3A0020C03A0020BC3A002061
:101EA000D03A002010B50121FFF73AFF10BDC0461F
:101EB000080010B50121FFF733FF0D20404210BD8F
:101EC000F0B5C646050000B50120FEF729FF041E47
:101ED00024D09C220021200009F028F964236B4AB9
:101EE0006575E2526A4B4022A362FF23E372F93B1D
:101EF000A352E387674B684A2363684B1B682362DE
:101F0000674B1B78A377674BA3648423E250664A30
:101F10001033E250200004BC9046F0BD0827634E09
:101F20003468002C0AD02000438BE4681F42F8D0AC
:101F3000BB434383FFF780FA002CF4D15C4B186855
:101F4000002812D0554B1C68036AE11AC368002BA5
:101F500008D01A6AA21A8A4201D311001800DB685D
:101F6000002BF6D10121FFF7DBFE0120FEF7D8FEA2
:101F7000041E06D0B8234F4AD2581388013B138061
:101F8000A7E73368002B16D0444A0021106802E00E
:101F9000DB68002B09D01A7D092AF9D11A6A821A46
:101FA0008A42F5D311001C00F2E7002C03D0002177
:101FB0002000FFF7B5FE0120FEF7B2FE041E07D099
:101FC000B8233C4AD2581388013B9BB21380D5E713
:101FD0003368002B16D0314A0021106802E0DB681C
:101FE000002B09D01A7D082AF9D11A6A821A914267
:101FF000F5D811001C00F2E7002C03D000212000CE
:10200000FFF78EFE0120FEF78BFE041E07D0294B42
:10201000B8229A581388013B9BB21380D4E76BB265
:10202000002B30DB002D21D02A003368013AD2B2D8
:10203000002B1BD019490F680021884607E0186A59
:102040003A1A90461C000A00DB68002B08D0597D24
:102050008A42F4D8F8D1186A3E1A4645F4D3EFE71D
:10206000002C03D001212000FFF75AFE0120FEF7CB
:1020700057FE041E00D14DE7B8220E4B99580A882E
:10208000013A0A80C4E77F22CFE7C046680B000010
:10209000680B680BFFFF1802DD230010C43A002014
:1020A000AB1E00200100680B00DD6D00C03A00206F
:1020B000D03A0020E4390020F8B50120FEF730FEC8
:1020C000041E22D09C220021200009F02FF840227B
:1020D000642364496275E152634BA362FF23E37298
:1020E000F93BA352E387614B614A2363614B1B6851
:1020F0002362614B1B78A377604BA3648423E25077
:102100005F4A1033E2502000F8BD08265D4D2C6870
:10211000002C0AD02000438BE4681E42F8D0B34361
:102120004383FFF789F9002CF4D1574B1868002836
:1021300012D0504B1C68036AE11AC368002B08D008
:102140001A6AA21A914201D811001800DB68002B0C
:10215000F6D10121FFF7E4FD0120FEF7E1FD041EA9
:1021600006D0B823494AD2581388013B1380A9E707
:102170002B68002B16D03F4A0021106802E0DB6874
:10218000002B09D01A7D092AF9D11A6A821A8A42CB
:10219000F5D311001C00F2E7002C03D00021200031
:1021A000FFF7BEFD0120FEF7BBFD041E07D0B823DC
:1021B000364AD2581388013B9BB21380D5E72B686F
:1021C000002B16D02B4A0021106802E0DB68002BA0
:1021D00009D01A7D082AF9D11A6A821A8A42F5D3DF
:1021E00011001C00F2E7002C03D000212000FFF7B3
:1021F00097FD0120FEF794FD041E07D0234BB82263
:102200009A581388013B9BB21380D4E72B68002BAC
:102210001AD0184A00253F21166806E0186A1100F6
:102220001C00351ADB68002B08D05A7D9142F5D886
:10223000F8D1186A371ABD42F4D8F0E7002C03D061
:1022400001212000FFF76CFD0120FEF769FD041E4F
:1022500000D158E7B8220D4B99580A88013A0A80F4
:10226000CDE7C046680B0000680B680BFFFF180243
:10227000DD230010C43A0020AB1E00200100680BD3
:1022800000DD6D00C03A0020D03A0020E439002083
:1022900030B50400037D85B0002903D0042B0CD099
:1022A000072B0AD0012B5ED0022B4FD0002B37D04A
:1022B0002000FFF7C1F805B030BDA26F002A03D19E
:1022C0003F4A218D9142EDD0238B20000293E38A77
:1022D000626A0193231D0093216D230002F010FD1B
:1022E000237D012B04D90A2B02D02000FFF7CAF866
:1022F000344A1368A34204D158E0DA68A24252D0AB
:102300001300002BF9D100230122E3602E4B1A7039
:102310002E4B1B68A34213D101F0E0FE0020CAE758
:10232000E38A002B0CD02A4A1368A34204D143E06D
:10233000DA68A2423DD01300002BF9D10023E360FC
:1023400001202100FEF712FD0020B4E721001D4806
:10235000FFF7AAFC01221C4B012021001A70FEF796
:1023600005FD0020A7E71B4A002110000C30536830
:102370001B68002B05D0DD6FAC420FD0DB68002B53
:10238000F9D104329042F2D121001348FFF78CFCBE
:1023900002202100FEF7EAFC00208CE7D967DB6809
:1023A000002BE8D1EDE7E268DA60ACE7E3681360A0
:1023B000A9E7E268DA60C1E7E3681360BEE7C046F8
:1023C000680B0000C03A0020BC3A0020D43A00203C
:1023D000CC3A002098DB0010C83A0020F0B5C64681
:1023E0000C00150000B5002948D0002A26D013891A
:1023F000098D244ACB189BB293421BD91300676AFC
:10240000668E2149B046E06A2385BA188E4200D90B
:102410008846414689B20918511A26D463851B4B58
:10242000121A9A4219D82800FEF750FF002004BC67
:102430009046F0BD9942E1D81A00E0E70020002B59
:10244000F5D10B7D012B03D010224B8B13434B8313
:1024500001212000FFF71CFFE9E70222638B200027
:102460001343638302F018FDDDE73B1A002B02DD06
:1024700000236385D7E7C01B6085D4E71020404266
:10248000D5E7C046680B0000B4050000D902000083
:10249000F8B5CE464746040080B5002866D0002334
:1024A000856F6F7B83678433C658002E0FD0010081
:1024B00000232A000069B047002828D00D303BD007
:1024C0000520A56740420CBC90469946F8BD018D99
:1024D0002B89284ACB189BB2934230D91300616AEA
:1024E000668E8C462449B146E06A238562448E425A
:1024F00000D98946494689B20918511A23D46385FF
:102500001E4B121A9A4225D82800FEF7DFFEBB06A2
:1025100010D5238D174A934201D00133238584239C
:10252000E558002D06D00023002221002069A8478D
:102530000D3001D00020C6E70D204042C3E799428C
:10254000CCD81A00CBE763461B1A002B0ADD002308
:102550006385D9E70222638B20001343638302F073
:102560009BFCD1E76346C01A6085CDE7102040424E
:10257000A9E7C046680B0000B4050000D9020000BE
:10258000F0B54F464646D646C0B5204D204F2B7875
:1025900001332B701F4B9946012398464B461C680C
:1025A000002C1BD008262B78A27F9A421BD04246D3
:1025B000A377638B1A421ED11E4216D1E3689A4656
:1025C000A36F002B07D0002320003B70FFF760FFB4
:1025D0003B78002BE2D15446002CE4D11CBC904641
:1025E0009946A246F0BDE468F6E7B3432000638352
:1025F000FEF722FFE2E7022213436383200002F08A
:102600004BFC0322638B93436383D5E7AB1E00200F
:10261000BC3A0020C03A002010B5FFF7B1FF054AD0
:1026200013780133DBB21370DB0700D410BDFFF762
:10263000B7F8FBE7AA1E002030B5040085B00028DB
:1026400000D195E0037D012B49D01021428B0A4334
:102650004283042B0FD1A26F002A11D1464A218D4B
:1026600091420DD1022B5AD0002B60D02000FEF7F2
:10267000E3FE05B030BD072BF4D1A26F002AEDD0E8
:10268000238B20000293E38A626A0193231D009347
:10269000216D230002F034FB237D012B19D8374A2A
:1026A00013689C4204D156E0DA68944250D013007B
:1026B000002BF9D100230122E360314B1A70314B1A
:1026C0001B689C424AD001202100FEF74FFB0020EE
:1026D000CFE70A2BE3D02000FEF7D4FEDFE72A4A3B
:1026E000002110000C3053681B68002B05D0DD6FF3
:1026F000AC420FD0DB68002BF9D104329042F2D10A
:1027000021002248FFF7D0FA02202100FEF72EFB1D
:102710000020AEE7D967DB68002BE8D1EDE72100A8
:102720001648FFF7C1FA0122154B1A70CBE7E38A6E
:10273000002BC8D0164A13689C4204D115E0DA6811
:1027400094420FD01300002BF9D10023E360BAE7C5
:10275000E268DA60AEE7E3681360ABE701F0BEFC65
:10276000002086E7E268DA60EFE7E3681360ECE7F1
:10277000102040427DE7C046680B0000C03A0020B0
:10278000BC3A0020D43A002098DB0010C83A002060
:10279000CC3A0020034B044A10681A6894466044FF
:1027A00018607047C0020020C43A002000290AD0F7
:1027B0008B8B002B07D0282B06D9283B1A1C9BB2E9
:1027C000834203D890B270470020FCE7021C90B20D
:1027D000F9E7C04670B504000D00002802D0036878
:1027E000002B00D170BD214A1068002812D0026869
:1027F000934206D0C06800280CD023680268934238
:10280000F8D1C6680121FFF78BFA002E02D0300004
:102810002368F3E7164B1868002806D0236802687F
:102820009A421BD0C0680028F9D1002DDAD02B685D
:10283000002BD7D00F4B1B68002BD3D02268196810
:10284000914205D0DB68002BCCD019689142F9D1B8
:102850002A681A60DB68002BF0D1C3E7C668012143
:10286000FFF75EFA002EE0D03000D7E7C03A002034
:10287000CC3A0020C83A002070B5446F0600002C06
:1028800018D06068256800280CD0FEF71FFD2100D5
:102890000320FEF76BFA002D0AD02C006068256833
:1028A0000028F2D121000320FEF760FA002DF4D1B8
:1028B0000023736770BDC046F8B5CE46474680B565
:1028C000C3680500587B1A7B000210430C00FDF71B
:1028D0008DFEC3074FD401239946FE339846284EF8
:1028E000336829899C46E368614458791A79000263
:1028F00010439A7912041043DA79120602432089B0
:102900008018081A2CD4587B1A7B00021043FDF75C
:102910006DFE4B46034207D127682000FFF772F98E
:10292000002F17D03C00DBE7EB68587B1F7B0002D1
:1029300007430120FDF75AFE41463843EA6883B257
:10294000276808401B0A107353732000FFF75AF9D9
:10295000002FE7D100242C600CBC90469946F8BDAE
:10296000891A0029F7DD6346D21A91B26868298175
:10297000FEF7FCFBEFE72000FFF728F90024EAE769
:1029800020180020F0B54546DE4657464E46564BC9
:10299000E0B51D88002D46D0544B994600234A4689
:1029A0001380534B00221E68524B1F881B78984699
:1029B0004146C943504B8A461B6850499C468B464A
:1029C0000023002E1FD0140014346444954200D814
:1029D0007EE0531C9BB297422BD85146C918C9B20E
:1029E000715C012928D002292AD0002919D09F42E0
:1029F00052D963441B7D012B00D871E0D21801230A
:102A000092B2002EDFD111001431614495425FD99A
:102A10000C78531C9BB2012C50D0022C4BD0002CB4
:102A2000E7D14A4613803CBC90469946A246AB4645
:102A3000F0BD21780129D6D11A0001340123C5E760
:102A4000911C89B29F4222D963441B7D042B44D13F
:102A50004B1CAB4241DAD31C9BB2002E32D08F42CA
:102A60001FD84446091BC9B2715C0432090292B2F4
:102A70009F421DD844461B1BDBB2F35C0B43591E1F
:102A800089B2594500D91E4B03800123B9E744465A
:102A90001B1BDBB2F35CD9E741465B1ADBB2F35C8C
:102AA000A9E76144097D0432090292B29F42E1D94B
:102AB00063441B7DE2E7911C89B2C5E71A0001312E
:102AC0000123A3E76144097D0432090292B2EFE7D2
:102AD000002BA8D04B461A80A5E74B461980A2E7E9
:102AE0004B4602321A809EE79E1E00209A1E00204E
:102AF000401800209C1E00203C180020B305000058
:102B0000B4050000F0B54646D6464F460D00C0B5A8
:102B1000060000293AD0204B204F994603239846BF
:102B200010E068682C68FEF7D9FB33883A881B1AD6
:102B300033802B8928009B183B80FFF763F8002C1B
:102B400024D02500EA68537910791B020343907959
:102B500000040343D07900061843FDF74BFD2B8991
:102B600004009A46EB68587B1A7B00021043FDF77D
:102B70003DFD4B461B68E41A43461840431E9841EE
:102B800054442418002CCCDD280000E000201CBC9C
:102B900090469946A246F0BD04060020981E0020EB
:102BA000F0B5DE4657464E464546E0B5C84B0400F4
:102BB0001B7883B0DB0600D59DE0C64EC64D30883D
:102BC0002A68002800D181E0237D062B00D97DE012
:102BD000636A991A012905D45F1CBF1A381A0028A4
:102BE00000DC0CE2D11A00D504E2511C208D89468C
:102BF000C91A091A002900DDDEE1934201D100F073
:102C00006BFC0023676F9846531E002F00D182E3B0
:102C1000B44616004246A84601940093F8684179EC
:102C200003790902194383791B041943C3791B06ED
:102C30000B43B34200D152E3002A00D1C0E1D16876
:102C40000C79A3464C792402A2465C4655462C4397
:102C5000A3468C79C9792404A2465C4655460906E8
:102C60002C432143009C611A04D44946C91A002907
:102C700000DC59E339683A00002900D140E10F0037
:102C8000CCE7944E3088002800D01CE15344C44463
:102C9000634500D017E13027E35F002B00DA12E133
:102CA000894500D00FE143239C46E35CFF2B00D114
:102CB00090E367460133DBB2E355032B00D989E388
:102CC00000D191E3636B002B00D0CDE0616A531A11
:102CD00006D401235B1A218D5B1A9A18002A03DDA2
:102CE0000222638B1343638303B03CBC9046994636
:102CF000A246AB46F0BD6023C35A774D9846836D1C
:102D00002A689C46436D077D991A0BD4934200D1E3
:102D1000EEE0724B9B4619688C4500D15EE143465C
:102D2000E24614E06D4B9B4619686D4B1868837B37
:102D30009946C37B48461B0203436020235202305E
:102D4000265A9E4200D281E08A466265A165606C87
:102D50008146081A002800DC93E7236DCB1A002B6C
:102D600000DD75E00423628B13420AD09A4362832C
:102D70004633E35A9C4648236646E65200262233F1
:102D8000E6523C26A35FE68FDB10B4464026634440
:102D9000A35342230026E6526164032F1BD94A2124
:102DA0000633E35A615A80B2994200D8D4E18021B7
:102DB00009010A4051424A41618E01324A43111CC5
:102DC00092B2824200D9011C591889B28B4200D9B3
:102DD00074E24823E15226006636216F3000FFF787
:102DE00091FEE16E20673000FFF78CFE216FE066F8
:102DF0004B424B415B42238600232377002800D1BE
:102E0000A7E16422374EA35A36889B19A352638BDD
:102E10001A0520D5002900D1AAE1E66CCA685379C9
:102E200010791B020343907900040343D079000614
:102E30001843FDF7DFFB361A002E0CDC638B2A4AA1
:102E4000244E134030882A68638307E023527BE7CF
:102E5000200001F0B3FF1F4E2A683088636B002BFF
:102E600000D1AEE659460968A76B791A00D4A8E6E6
:102E70009BB29B463C23E75E1C49FB109BB29C46E1
:102E800009880B00884661465B1A59465B1A9BB25B
:102E9000DF1939B28A46A18719B2002904DA6346DC
:102EA00041465B1A5B449BB23E27E15F8F10C91B12
:102EB0005B185146CF1040219BB2E387DB19635268
:102EC000002363637DE643230021E154C6E7C04647
:102ED000A71E0020A01E00202018002004060020AD
:102EE0003C180020981E0020FFF7FFFFC43A002086
:102EF000BC4B19689B4663465B1A00D40CE714E789
:102F0000320045466646019CD31A002B54DD037BF4
:102F1000407B00021843FDF769FBC3074CD4B2485D
:102F2000FEF782FE3860002846D0FA68537911799E
:102F30001B02194393791B040B43D1793A89090683
:102F40000B432968D218521A002A05DDC91A89B222
:102F500078683981FEF70AF92A6833889446626AEC
:102F600063449B1A228D9B1A002B25DD3B68DB688E
:102F7000587B1A7B00021043FDF738FBC30700D5CE
:102F80008AE23A682B68218D5068C91A636A9C46A8
:102F9000614489B21181FEF7E9F83B681D89DB685D
:102FA000587B1A7B00021043FDF720FB03230340EC
:102FB000581E8341EB183380200001F0FFFE93E69A
:102FC000F21A00D456E68848019CFEF72DFE002830
:102FD000F2D060673900FFF76FFCEDE7834B1868AC
:102FE000837B9946C37B48461B020343984500D325
:102FF00095E6A2E60222638B13436383DCE77A4FF4
:1030000089B278683B8902895B1A521A3B8193B274
:10301000984643898B420BD2002294464246C91AF5
:10302000634602814381006889B243898B42F6D3AB
:10303000FEF7FAF8636AFA68190A517119022B60EF
:103040001371090E1B0E9171D371238D002BB3D018
:103050003B899846FB68587B1A7B00021043FDF7BA
:10306000C5FA03230340581E834143449BB2338077
:10307000228D9A4200D281E1626F002A00D185E060
:10308000FB68587B1A7B00021043FDF7AFFAC307B9
:1030900078D4636F9846002B00D118E2012399463B
:1030A00001339A46230000974446984609E0236876
:1030B00020009B46FEF7A6FD5B46002B00D1A4E155
:1030C0005C462A68338893469C46DC446746E2683F
:1030D0005079117900020843917909040843D179A4
:1030E0000906014320894018381A00D582E1507B37
:1030F000137B00021843FDF779FA4B460342D6D002
:10310000009BDB68587B1A7B00021043FDF76EFAC8
:1031100053460342CBD1009F0120FA68537B117BB9
:103120001B020B439B46FDF761FA5B46FF21FA68E1
:10313000034398B20B401373030A53733B899B46B6
:10314000FDF754FA03230340581E83415B44338048
:10315000ADE76833E05254E66A21625A101880B233
:10316000824200D9AFE0834200D8ADE0605232E63F
:10317000002800D163E6E66CC26850E60368636726
:10318000FEF740FD606F0028F8D133882A68944626
:103190009C4462466262228D2000D31A2385FEF78A
:1031A000A1FA7B681A89002A03D0114A1360002310
:1031B0007B60FB68587B1A7B00021043FDF716FA10
:1031C000C30704D520210B4A13780B431370666F95
:1031D000002E00D196E0064B03279946054B9846F2
:1031E0002AE0C04604060020CC0F00203C18002036
:1031F0001C180020A91E0020FEF786F8002373602B
:10320000F368587B1A7B00021043FDF7EFF9C30700
:103210000AD5434620221B78134342461370237D70
:10322000042B01D103332375336830006367FEF745
:10323000E9FC666F002E65D0F268517913790902B6
:10324000194393791B041943D3791B060B43616A15
:103250008B4257D12B603389507B9A46137B0002F7
:103260001843FDF7C3F93840431E9841636A53443D
:10327000C018F3686062587B1A7B00021043FDF7A8
:10328000B5F933899A46F368587B1A7B00021043DC
:10329000FDF7ACF93840431E9841238D5044181A6D
:1032A00020852000FEF71EFA71680B89002BA7D03D
:1032B0004B46186800289FD119609FE701224823D8
:1032C0005242E25287E585486A22C01AA052628EB5
:1032D0009A1892B29342F1D84823E2527BE5804893
:1032E00090463B890289019C9A4200D864E6FEF729
:1032F0009BFC002800D15FE64346002B00D168E626
:10330000186067E60122638B1A4209D093430222B8
:1033100013436383E8E47248FEF786FC60674BE67C
:10332000012213436383DFE46D484546019C9046C8
:10333000FEF77AFC061E00D13EE64346D9684A797C
:103340000B7912021A438B791B041A43CB79296833
:103350001B06134342461289D218521A002A06DD70
:10336000C91A434689B258681981FDF7FFFE4346E2
:10337000390030001E60FFF79FFA1DE6FB68587B9E
:103380001A7B00021043FDF731F9C30746D4FB68EE
:10339000587B1A7B00021043238D3B81FDF726F9F1
:1033A0003989830702D5013989B239817868FDF7F7
:1033B000DDFE3B899846FB68587B1A7B0002104370
:1033C000FDF714F903230340581E834143449BB285
:1033D000338051E64823E25A638ED3189BB29A4257
:1033E00000D93E4B4822A352200001F05DFC3088FA
:1033F0002A6833E54246A04614006246009F521AEE
:10340000002A22DC42466267C3E62A683388944673
:1034100000224446009F90469C44F3E7FB681A7BD9
:103420005B7B1B02134318009846FDF7DFF83E2331
:103430001840FDF7DBF842462A4B13400343FA6875
:1034400098B21373030A5373A6E75B46C91AFB6865
:103450003981587B1A7B00021043FDF7C7F88307B8
:1034600002D53B89013B3B8139897868FDF77EFEB7
:103470003B899946FB68587B1A7B00021043FDF795
:10348000B5F803230340581E83412A684B449446F1
:103490009BB233809C44B5E73B68DB681A7B5B7B5F
:1034A0001B02134318009846FDF7A0F83E2318406E
:1034B000FDF79CF8844640460A4B3A680340604654
:1034C0001843D16883B21B0A08734B735AE52A6804
:1034D000338894469C4495E7014FB9E5FFFF00000F
:1034E000CC0F0020FFC0FFFFF0B557464546DE4633
:1034F0004E469222E0B5C64CC64FA35A0500013392
:10350000A35243688DB03B604389132B11D89A2294
:10351000A35A0133A3529622A35A0133A35228007F
:10352000FDF7D4FE0DB03CBC90469946A246AB4692
:10353000F0BDB94B19685869984604F0BFF80028E7
:1035400016D14246F02352691340E02B10D0414679
:10355000434614312A892800009110330621FDF7D3
:1035600015F9061E09D09822A35A0133A352D2E7B7
:10357000A022A35A0133A352CDE73B68587B1A7BA4
:1035800000021043FDF732F8010B8900C9B213297C
:10359000BDD92B898AB28B42B9D313009F48143B03
:1035A0009BB2038081469E480660824668899042AD
:1035B00000D292E19B4A28001380FDF735FE3E6859
:1035C0007078337800021843FDF710F83070000A65
:1035D00070703E68F078B37800021843FDF706F883
:1035E000B070000AF0703E68737930791B020343B3
:1035F000B07900040343F07900061843FCF7FAFFA2
:10360000030A7371030CB371030EF371864B3071AF
:103610003E681860737A307A1B020343B07A000464
:103620000343F07A00061843FCF7E4FF030A7372C1
:10363000030CB372030EF3727C4B30723E68186059
:10364000F07BB37B00021843FCF7D0FF3B68B073FC
:10365000000AF073587B1A7B00021043FCF7C6FF88
:10366000C3B207933F23724A0340069313702B891A
:103670009A46830700D152E153465A1C93B26D4AD1
:103680000A93089213809A4500D940E76A4B1E6856
:103690000B96002E00D19FE343465B6800209946BD
:1036A00043461B693968059343465B6909932823A0
:1036B0009C464B46A946049305E0F3683000002B76
:1036C00000D193E01E00327A002A06D06546049BA2
:1036D0005B5D0133DBB29A42EFD14B780D78328BD0
:1036E0001B022B439A42E8D18B78F28A9B465D46B7
:1036F000CB781B022B439A42DFD17368059A934221
:10370000DBD13368099A9342D7D14D46002801D1C5
:1037100000F02EFCF368C3600B9BF360464B1E6009
:10372000464B504698460023424613601081556030
:10373000D160434A13609246424A13709146424A0E
:103740001380079B93461B0703D501226B7B134312
:103750006B73B36F002B10D03000FEF799FE0D3065
:1037600000D1A2E2B36F002B04D0089B1B88002B72
:1037700000D09AE22E4B1B780693344C069B2660B1
:103780005B0700D479E1337D022B00D10FE3264B98
:10379000726A1B689A4200D10FE39B1A04D4328DDF
:1037A0009B1A002B00DCFDE24B461B781A0700D465
:1037B000B2E29023F358002B03D00E213069494226
:1037C00098471D483100FEF76FFA3000FDF7BEFE46
:1037D000002553461D60434658682560002800D1E7
:1037E000A0E6FDF773FD43465D609BE64D46184B32
:1037F0001868002800D199E043465B689C46434620
:103800001B6966469A4643465B69AC469B4624E084
:10381000E43900203C180020B01E00209E1E00202D
:10382000401800209C1E00202018002004060020C4
:10383000A71E0020A01E0020C03A0020CC0F0020B0
:103840001C180020A91E0020981E0020D43A002039
:10385000D03A0020C068002867D0057A002D05D036
:103860002823F35C0133DBB29D42F3D14B780D7812
:103870001B022B43058B9D42ECD18B7899464A461F
:10388000CB781B021343C28A91469A42E2D1436825
:103890005345DFD103685B45DCD1079B2E006546AD
:1038A0005A0700D53BE69B0701D400F0DAFBD44B66
:1038B0001A68436AD31A05D4018D5B1A002B01DC08
:1038C00000F0EBFB0A9B002B00D128E60223428B81
:1038D0001343438301F0E0FA21E614212800FDF7A9
:1038E000A3FC6E89C74B31001E804B461B88280005
:1038F00099469B1B9BB29B46FDF796FC2868438923
:103900005B4500D203E65346426859461A60FDF70C
:103910008BFC2B89F6184B46F61A2E814FE6524641
:10392000B94B0A9208931A80B0E66546B74B1E68F9
:103930009B46B246002E00D1C2E143465B6800229E
:103940009C4643465B6960469946AC4605E0F36891
:103950003200002B00D1B2E11E00357A002D05D0D7
:103960002823C35C0133DBB29D42F0D1CB788D7844
:103970001B022B43F58A9D42E9D135684D4501D0A4
:10398000002DE4D16546002A00D134E2F068D06011
:103990005246F2605A461660079A500700D5BEE5B7
:1039A000D20600D52CE2079B9B0700D4B7E5707DBB
:1039B000FEF786FA8146002800D1F7E243464146E9
:1039C0001B69496943600160F38A3A68C38253788E
:1039D00011781B020B43038303230375884B1B6879
:1039E000049301334362C362FEF7D4FE4B464A465A
:1039F000986518655864D865814B1B68013B536511
:103A00004B463269DE671A610C22737A13404A46CC
:103A10005372337A13727E4B1B6804934B46049A9D
:103A2000DA604A467A4B1A6001F038FE48460122B5
:103A3000784B32301A70FEF7A5FF3A68D37B917B42
:103A40001B020B431A0413434A46141D136620003D
:103A5000568E03F087FB220001003000FEF7A6FE21
:103A60004B4612215886484601F038F8002800D00D
:103A700096E2484601F010FA51E5069A0223150035
:103A80001D40134204D0337D023B012B00D989E154
:103A9000738BDB0602D4604B1B6833629A230022CF
:103AA0003000F2523230FEF76DFF337D092B00D922
:103AB0007AE65A4A9B00D3589F463000FFF770F8C9
:103AC0004B461B789B0600D46EE60223728B134391
:103AD00073830723337567E6069BDB0600D4E1E1B9
:103AE0004F4B1968736CDB43CB4204D4336DCB1A54
:103AF000002B00DC87E2089B414A38681B8812686B
:103B000005789A1843781B022B430293C378857873
:103B10001B022B430193434B30000093424B01F0B7
:103B2000EFF841E61223069A1340122B00D1C7E1A9
:103B3000069BDB0600D437E6089B314A39681B88B0
:103B4000126808789A184B781B0203430293CB78CB
:103B500088781B0203430193324B314900933000B4
:103B6000314B096801F0CCF84223F35C052B00D9F6
:103B70001AE600233000338601F0A2FB14E6300081
:103B8000FFF70EF8294B1A7810231A4200D10BE6E2
:103B9000234A316D1268914200D005E6F26E002A88
:103BA00000D001E64A46127813434A461370FBE5FB
:103BB0003000FEF7F5FF4B461B789B0600D4F3E57B
:103BC0000223728B300013437383FEF761F8104BAE
:103BD0001B689E4205D1FBE1DA68964200D1F4E110
:103BE0001300002BF8D101220A4B1A700A233375F7
:103BF0000F4B1A681E60F26001F050FDD4E5C0461C
:103C0000201800209C1E0020A01E0020C83A002082
:103C1000C03A0020BC3A0020C43A0020B0DB0010BB
:103C200004060020C01E0020C41E0020A71E002085
:103C3000D03A00203000FEF7B3FF4B461B789B06BE
:103C400000D41DE1CD4B1B78DB0605D5CC4B326D86
:103C50001B689A4200D1BFE10223728B1343738326
:103C600008233375A0E53000FEF79AFFC34B1B789D
:103C7000DB0600D498E5C24B326D1B689A4200D037
:103C800092E5F36E002B00D08EE53000FEF700F8D1
:103C9000BC4B1B689E4205D19AE1DA68964200D17E
:103CA00093E11300002BF8D19DE7738D002B00D119
:103CB0008EE09622A35A0133A352B34C88E56546A1
:103CC000487B0B7B00021843FCF790FC430701D5AF
:103CD000FFF725FCA022A35A0133A3520A3AA35AA4
:103CE0000133A352089A3C681188A84A6078126888
:103CF00026788A180002A249304309680290E078C9
:103D0000A678A34B000230430190181F00900020BA
:103D100000F0F6FFFFF703FC5A461288002A0ED087
:103D20008023F358002B05D03100306998470D30BF
:103D300000D14DE500235A4613804B461B781021D5
:103D400019424BD153461A68002A15D0738B194279
:103D500000D08AE08423F55831000023002D00D1E3
:103D60008AE03069A84703000D3300D130E5002810
:103D700002D053461B68B3674A4620231278134289
:103D800005D0B26F002A5ED0517B0B4353734A4675
:103D90000023127823601033134246D1300001F023
:103DA0007BF815E50222738B13437383FCE4744B99
:103DB000326D1B689A4200D0F6E44B461A7808230D
:103DC00013434A4613700122738B93437383EBE4CE
:103DD000300000F0F3FF6CE7396808E5738B194297
:103DE00000D0EEE49023F358002B00D1E9E43069D1
:103DF0001F399847E5E4A620225A01322252CBE52A
:103E00000A98624A84460878497812680902014390
:103E10000193604B02915A49009330005C4B096852
:103E2000624400F06DFFFFF77AFB728B1A4200D0FC
:103E3000C7E48033F358002B00D1C2E40F2130696E
:103E400049429847BDE4338D534A934201D0013330
:103E500033858423F558002D99D0002331001A00B2
:103E60003069A8470D3092D1B2E41000FDF72EFA68
:103E70003000FEF717F8ABE41800FEF7AFFA72E770
:103E80003E4B1B78DB0600D48EE43D4B326D1B6845
:103E90009A4200D088E4F36E002B00D084E406330D
:103EA000337581E4002D00D17EE4384A736A1268CC
:103EB000013B934200D077E4300000F0ADFE73E4A4
:103EC0002F4B1B680493736C049A0133934200D008
:103ED0002EE62E4A73641268511C7162F1623968D1
:103EE000013ACB7B887B1B02034319040B433366E7
:103EF0000423F518337572652800778E03F032F9C4
:103F00002A0001003800FEF751FC42007086830051
:103F100022481100824200D201008B4200D3AEE061
:103F20009BB24822B3521E32B35A306F013BB35298
:103F3000002800D1ADE003683367FDF763FE336FFF
:103F4000002B00D1A2E000234222B3543386882301
:103F5000F358002B06D000223100306998470D300D
:103F600000D135E40223728B13437383FFF71CFCEB
:103F7000A622A35A0133A352FFF7D2FBA71E0020AB
:103F800004060020C03A0020D43A00202018002067
:103F9000C41E0020C01E0020680B00001C11000081
:103FA00000214846FDF7BCFEFFF7B9FA9C22A35A50
:103FB0000133A352B369002B01D1FFF7B0FA01001E
:103FC0009D3A30699847FFF7AAFAF268DA600AE684
:103FD0003C4BF2681A6006E6F36E002B00D03BE61D
:103FE000728B0233134373833000FDF751FE354B60
:103FF0001B689E4204D1EBE7DA689642E5D01300D5
:10400000002BF9D1EFE504233375F36F002B00D1BA
:104010002EE79B69002B00D12AE70022310030698E
:104020009847002826D13000FEF7BAFD5B461B8872
:10403000002B02D05A46013B1380738E22485A004F
:1040400011009B00824200D201008B4234D29BB20D
:104050004822B3524B461B789B0601D4FFF7A4FBC2
:1040600033E5079BDB0700D42CE4184B1B68036285
:10407000FFF728FC0D3001D1FFF7AAFBF8E6124943
:104080000B008A4200D84CE793B24AE701235B4217
:104090005CE7F06E0368F3664FE70A9B0C499C46A9
:1040A0004B4601930B4B0296009309680A4B6244FE
:1040B00000F026FEFFF733FA03490B008A42C7D906
:1040C00093B2C5E7C03A00201C110000C43A00209A
:1040D00004060020C01E0020C41E00201021024A39
:1040E00013780B4313707047A91E0020F8B5DE4605
:1040F00057464E464546E0B5042598460AAB16009D
:1041000004CB07001B788A4698000540032091469F
:104110009B46FCF705FE041E4AD05B4683720023D3
:1041200046600360338914215B1B03813000FDF777
:1041300055F8061E32D1636838885B689B46E36099
:10414000FCF754FA5B461870000A587053461888FA
:10415000E768FCF74BFAB870000AF8704846E76861
:10416000FCF748FA030A7B71030CBB7143463871B4
:10417000000EF871A808053000031843E768FCF743
:1041800035FAE3683873000A78739E74DE74200091
:104190003CBC90469946A246AB46F8BDA4220649CF
:1041A00020008B5A002401338B52FDF72BFDEEE7E4
:1041B0003000FDF78BF8EAE7E4390020F0B5474618
:1041C000CE4680B505000C0090461E0085B0002844
:1041D00035D0007A00282BD1180002F0C3FF071E4B
:1041E0002AD063680621994620004346228900961A
:1041F000FCF7CCFA4B461874000A5874EB7AAD7A87
:1042000090211848425A01324252062200950192EA
:10421000414632002000029703F0E8F80500200034
:10422000FDF754F8280005B00CBC90469946F0BD47
:10423000FCF726FE071ED4D104256D42EFE71800D7
:1042400002F090FF071EF7D0434606212000228986
:1042500000966568FCF79AFA2874000A6874FF23D0
:104260000025CDE7E4390020F0B54E46DE4657463E
:104270004546E0B58FB08146049100920B9300282B
:1042800000D1B4E26223C35A428E5B08191C9342E8
:1042900000D942E18BB20193002B00D13BE1049B9A
:1042A000002B00D1A3E24B461B7D072B0CD0023B19
:1042B000022B09D90B24644220000FB03CBC90466D
:1042C0009946A246AB46F0BD009A002A00D1C8E04C
:1042D00064234946CB5A934200D290E26623CB5ADC
:1042E0009A46072B00D985E2CB6E9B46002B00D067
:1042F000C1E0002300250C9306930A930D93009BC5
:10430000AB4200D899E20B9A012311001940013306
:104310001A40002309926A4603930293019B059178
:10432000D3835B460893009B019A5B1B1E1C9BB2C8
:10433000934201D96B46DE8B059BB6B2002B00D1B0
:1043400089E1019B3100B34217D9099B002B0BD1A6
:104350004B465B8B5B0610D4039B002B04D14B4672
:10436000DB6E002B00D1D7E1D24BF1180323994328
:10437000019B994200D9190089B2A02236209200EF
:10438000FCF744FE071E00D1BBE17B8932009B1B7A
:104390009BB2069333043343BB60049B786859197E
:1043A00006F0CAFE3800FCF799FF504483B29A46E3
:1043B000082B00D96DE14B46DB6D03209B46FCF7D3
:1043C000AFFCAB44041E00D163E10023476083725D
:1043D00003603B89142103813800FCF7FFFE071EB0
:1043E00000D06BE163685B689846E3604B46D88A0F
:1043F000FCF7FCF843461870000A5870E3689846CA
:104400004B46188BFCF7F2F843469870000AD870B8
:10441000E36858469846FCF7EDF843464246187163
:10442000030A5371030C9371000EE368D071A0204E
:104430009846C001FCF7DAF843461873000A58732F
:10444000E3689F74DF74039B002B00D128E1029B7B
:1044500075191C60009BADB2AB4200D8DAE1029442
:1044600061E74A466623D35A9A46D36E9B46002B91
:1044700000D1E7E15B461A001B68002BFBD19B468D
:1044800013000C92987A04231189019A8000521A21
:104490000340D31A9BB20A934A466823D35A069321
:1044A000002B41D1009B002B00D08CE006936822AA
:1044B000494606980C9E88520C935B4633600099DF
:1044C0004B468C464A46DB6D6344D3656423D25A1F
:1044D000521A4946CA524A4651460233D1520C9B9F
:1044E000002B00D175E1DB680024002B00D1E3E64E
:1044F0000B9A920700D5DFE6587B1D7B000205432F
:104500000820FCF773F80C9B2843DA6883B21B0A77
:1045100010735373D0E60192C1E6111C8BB2019364
:10452000002B00D0BBE6F6E718001D1C009B98424C
:1045300000D989E00A9AABB2934200D982E0069B87
:10454000ADB25B1B9BB206930A9B5B1B9BB20A93AB
:10455000009BAB4238D80C9B002DA8D0002300272D
:104560000C9E0A937468002C1AD02389EB182381BF
:104570002368002B06D01C002389EB1823812368B5
:10458000002BF8D1636860899C462A000499604436
:1045900006F0D2FD6389EB1863812368002BEAD112
:1045A0003389ED18358168234A460699D152002F88
:1045B00000D1EAE039007068FCF7A6FE33893A8939
:1045C0009B18338179E700250A9B002B38D00029FE
:1045D00034D0009A561B9E4200DDA3E00B9BB4B280
:1045E000DB0700D5A0E00C9B5B681A001300126883
:1045F000002AFBD13F2193461A7B8A4306D15A8970
:104600005B689B18049A9A4200D1FFE001222100C6
:104610000020FCF7FBFC8346002800D1DBE0049B74
:104620005B1943605846FCF759FE504483B29A46E2
:1046300000230A9364190D95A5B260E600230A933E
:104640000D9560E6151C7AE71D1C0A9AABB29342E1
:1046500000D874E7F6E7012231003620FCF7D6FCDB
:10466000041E4ED0A022049B00215B1943609200DF
:104670003620FCF7CBFC071E47D02100FCF744FE98
:104680003800FCF72BFE504483B29A46082B00D822
:1046900091E6089B38009B46FCF718FE064D17E094
:1046A0007519009BADB2AB4200D8BFE003940294F1
:1046B00039E6C046B7050000E4390020A422089B73
:1046C000634D9B46AB5A20000133AB52FDF79AFA7B
:1046D0004B4680225B8B13434A4653839C22AB5A42
:1046E0000133AB525B46002B02D05846FCF7EEFD7F
:1046F000039B002B02D01800FDF768FA01246442E6
:10470000DAE5089B524D9B46E2E7089B20009B465A
:10471000FCF7DCFD4E4DDBE74B461B6F002B00D05A
:1047200022E62AE61E0059E70A9B21009C4212D28B
:104730000B9B9B0703D44B465B8B5B060BD4454B13
:1047400031049C460323090C614499430A9B994216
:1047500000D9190089B2A02200209200FCF756FC73
:104760008346002837D05B465A465B891B1B9BB2A9
:104770000693230423439360049B320459195B4638
:10478000120C586806F0D8FC4CE70A9B002B19D095
:10479000716818000A68002A01D139E01A000B89F3
:1047A000C3180B8113681100002BF7D10A991389E4
:1047B0008C46634413815389634453813389634432
:1047C00033817AE6002E00D077E64B465A46DA6609
:1047D00075E6002470E54B4680225B8B1C49134331
:1047E0004A4653839C228B5A01338B5286E710240E
:1047F000644261E59C2216498B5A01338B524B4629
:1048000080225B8B13434A46538377E70A9411E770
:104810000A00CBE7089B9B460D9D0C9E0C940D9BBC
:104820005F46002B06D0039B9B469BE6089B0394A8
:104830009B46F1E7039B9B46B5E600230D9D0C9E2E
:104840000393ECE700996833D15200230C93BCE743
:10485000E4390020B7050000F0B54E464546DE4677
:104860005746E0B5C56E06000C0083B0002D41D060
:10487000002900D1B8E02B899A468B4207D8002046
:1048800003B03CBC90469946A246AB46F0BDAB7A1D
:10489000A0229900994604230B409B4653461B1BBC
:1048A0009BB219005944362089B292009846FCF711
:1048B000ADFB071E19D06B682A891B899B1A4268B9
:1048C000E3185A441100686842469BB2FCF764FD45
:1048D000404512D09C22464938008B5A01338B52F6
:1048E000FCF7F4FC01204042CAE79C2240498B5A65
:1048F00001338B5201204042C2E7EB68587B1A7BA0
:1049000000021043FBF772FE0823010019408B469A
:10491000C2B2184261D13F201040804601220123DB
:1049200041460B4202D0994388469346EA68537940
:1049300010791B020343907900040343D0790006E9
:104940001843FBF757FE20184B460090310030000B
:1049500001933A005B4618311630FFF7C7FB8146DA
:104960000028B7D066276868FCF7B8FCF35B1B1A11
:10497000F3535346E41A6B68A4B2198918006118FE
:1049800089B2FCF7F3FB2989EB6864182C811C7B46
:10499000587B43460002044398B2FBF727FE2043AE
:1049A000EA6883B21B0A107353736868FCF796FCBD
:1049B000F35BC0184B46F0535868FCF78FFCF35B71
:1049C0002A68C0184B46F0531A602B601B68002BF6
:1049D00000D054E76822B35251E737200823104033
:1049E000804609229B469AE70620404248E7C04697
:1049F000E439002070B5C36E040082B0002B0CD0E7
:104A00001D001B68002BFBD1EB68587B1A7B000252
:104A10001043FBF7EBFD430732D0A02200219200A8
:104A20003620FCF7F3FA021E3ED0002321002000BE
:104A30000193E36D1831009316300123FFF756FB05
:104A400000283DD0E36E002B18D01A001B68002B05
:104A5000FBD1106068230022E2522022E36D4068FF
:104A60000133E365638B13436383FCF737FC6623F1
:104A7000E25A8018E052002002B070BDE066E9E71B
:104A8000EB68587B1E7B000206430120FBF7AEFD5E
:104A90003043EA6883B21B0A107353732022638B7E
:104AA000002013436383E7E78022638B01201343D5
:104AB0009C22094963838B5A404201338B52DBE7C6
:104AC0008022638B044913439C2263838B5A0138F1
:104AD00001338B52D0E7C046E4390020F0B5A02264
:104AE00003268F07FF0F920004000D00362083B0CD
:104AF0000E40B900FCF78AFA021E2ED021002000D9
:104B0000E36D0197009318312B001630FFF7EEFA92
:104B100000282ED0E36E002B1DD01A001B68002B3E
:104B2000FBD1106068230022E252002E02D0E36D18
:104B30000133E365EB0709D44068FCF7CFFB66233C
:104B4000E25A8018E052002003B0F0BD2022638BAF
:104B500013436383F0E7E066E4E78022638B012080
:104B600013439C22084963838B5A404201338B5282
:104B7000EAE78022638B044913439C2263838B5AA8
:104B8000013801338B52DFE7E4390020F0B5C64627
:104B9000026F060000B5002A39D01400636825684A
:104BA0009B7B002D07D0012B31D12C006368256839
:104BB0009B7B002DF7D1012B29D1F36E236080233D
:104BC000F266728B1B011343E26835677383537976
:104BD00010791B020343907900040343D079000647
:104BE0001843FBF707FD238907009846E36847440D
:104BF000587B1A7B00021043FBF7F8FC03230340A9
:104C0000581E8341DB190020F364756301E0062020
:104C1000404204BC9046F0BDF8B5066F0700002E78
:104C20003CD073689B7B012B38D1050033686C3511
:104C30000367C36E002B04D121E02D682B68002B85
:104C40001DD0DA68537910791B0203439079000470
:104C50000343D07900061843FBF7CCFCF26804004C
:104C6000537910791B020343907900040343D079F0
:104C700000061843FBF7BEFC241ADED42B68336011
:104C80002E603368002B0CD04222BB5CFF2B01D07E
:104C90000133BB54002300207B6301E00620404227
:104CA000F8BD6822BB52EFE7036F70B50400002B1C
:104CB00002D0438B5B0700D570BDFFF7ADFF002826
:104CC000FAD160234821E25A605A131C824200D96B
:104CD000031C4A209BB25D105B082352628E510078
:104CE0008D4201D28BB2235252189B184822A352F4
:104CF0000422638B1343638300232386DCE7C046CF
:104D0000F0B5DE4657464E464546E0B583B0984678
:104D10000CAB914604CB070001921A880EAB934668
:104D20001A8808009246FBF765FCA02205001421B2
:104D300022209200FCF76AF9061E34D044685846D7
:104D4000FBF754FC2070000A60705046FBF74EFCE5
:104D50002B0AA0702571000A63712B0C2D0EE070D8
:104D6000A3714846E571FBF745FC030A20726372A4
:104D7000030C000EA372E0720E48FBF737FC2073A1
:104D8000000A60730C48FBF731FC0023A073000A93
:104D9000E07323746374A374E374424631003800F3
:104DA000019BFFF70BFA03B03CBC90469946A24624
:104DB000AB46F0BD145000000B680000F8B5DE46AD
:104DC00057464E464546E0B50500006DFBF712FC20
:104DD000A0226B6A06009946EB8A14219B462B8B16
:104DE00022209A466B8D92009846FCF70FF9071E19
:104DF00049D044685846FBF7F9FB2070000A607000
:104E00005046FBF7F3FB330AA0702671000A63716A
:104E1000330C360EE070A3714846E671FBF7EAFBEF
:104E2000030A20726372030C000EA372E072194829
:104E3000FBF7DCFB2073000A60734046FBF7D6FBF0
:104E400000236A6AA0739446000AE07323746374B3
:104E5000A374E3746B8D2A006344EB6239002B1D4D
:104E60002800FFF7ABF96B8B002808D1032293438E
:104E70006B833CBC90469946A246AB46F8BD0322E4
:104E800013436B83F5E7032202206B8B40421343ED
:104E90006B83EEE710500000F0B5DE4657464E46F5
:104EA0004546E0B5CB4B04001B6887B0834200D178
:104EB000DFE1C56E002D34D04823C65A1833C75AD7
:104EC000031D007A9946002800D0D4E1180002F0B2
:104ED00049F982465346002B00D1E3E12368002BB9
:104EE00002D153461B682360331CBE4200D93B1CD1
:104EF000EA689FB2537910791B020343907900044A
:104F00000343D07900061843FBF774FB2B89626CCE
:104F10009B1A1B18BB4213D96023E35ABB4200D132
:104F20001DE1628B930700D515E1802300209A4391
:104F3000628307B03CBC90469946A246AB46F0BDA2
:104F400099230022E254236F002B00D117E11A00AD
:104F50001B68002BFBD190464346B8461F00BCE0BF
:104F6000EE686B689B7B9B46012B53D1606AFBF715
:104F700041FB030A30727372030C000EB372F072BD
:104F8000608DEE68FBF732FB626AB07394465A4656
:104F9000000AF073638DEE686344E362AB7A1A42F1
:104FA00000D009E13022A35E002B01DA0023238622
:104FB000636B002B00D1ECE06868062143684289EE
:104FC000F31A9BB2D21A428102894660D21A002398
:104FD00092B20281337473744B4600932300FBF743
:104FE000D5FB902230747C4B000A70749B5A7A492E
:104FF00001338B525246E37A68680292062201928C
:10500000A27A210000924A4602F0F0F9002800D06E
:1050100043E1EE682B68E366237D022B03D0032275
:10502000638B93436383737930791B020343B079B5
:1050300000040343F07900061843FBF7DBFA2B89E1
:1050400006009B46EB68587B1A7B00021043FBF777
:10505000CDFA03230340581E8341300058441818EA
:10506000236D1B1A00D52065EB682E89587B1A7BAF
:1050700000021043FBF7BAFA03230340581E834192
:105080009B19002B00D17DE000232B60236F002BA8
:105090007CD0EA68537910791B02034390790004AD
:1050A0000343D07900061843FBF7A4FAFA68060018
:1050B000537910791B020343907900040343D0799C
:1050C00000061843FBF796FA361A00D59DE03D60BE
:1050D0002F00E56E002D00D1D5E0EA6853791079F4
:1050E0001B020343907900040343D0790006184360
:1050F000FBF780FA636CC01A2B89C018404500D9B1
:10510000C7E0EB68587B1A7B00021043FBF76EFA8E
:10511000236F002B0AD04421638B1A00194205D15A
:10512000E16E002962D0086800285BD0237D022B45
:1051300000D115E7EB68587B1A7B000210438346C9
:105140001020FBF753FA5B461843EE6883B21B0A44
:105150003073737305E72000FFF730FEE9E6236F35
:10516000002B00D0DDE69933E35C002B00D0D8E6BD
:10517000802198224900A1520232A354D1E6002393
:105180009846E9E62800FCF73DFDA2E72F002567D9
:105190009FE7124B1B6805936363737930791B0299
:1051A0000343B07900040343F07900061843FBF78A
:1051B00021FAEE68A063FFE64A4651460848FDF72B
:1051C000F5FA81239B041843FBF714FA7061EE682B
:1051D000E8E6C046D43A0020E4390020C43A002072
:1051E000B40500000E89608E86429FD26420205A4A
:1051F00000289BD06620205A072897D8A020184264
:1052000094D1002900D090E63EE070239B46236FA6
:10521000A344002B29D022005C46934603E0246877
:105220002368002B2BD0DA68537910791B020343D3
:10523000907900040343D07900061843FBF7DAF9AC
:10524000EA680600537910791B0203439079000441
:105250000343D07900061843FBF7CCF9361ADED4A5
:105260005B46A3461C005B461B682B605B461D60CB
:105270002FE700205DE6FBF703FE82462AE65A464A
:10528000A3461400F1E7638B68220021A1521A00A3
:105290004BE6638BE16E1A00B3E78022638B134306
:1052A000638346E60420404243E6C046422210B5EE
:1052B000835CFF2B01D001338354FFF7EDFD10BD5C
:1052C000F0B5C646036F040000B5002B08D01D00E2
:1052D0002E002D687268927B002D04D0012AF7D031
:1052E00004BC9046F0BD012AFAD1E26E3260E3665A
:1052F0008023628B1B011343F26825676383537914
:1053000010791B020343907900040343D07900060F
:105310001843FBF76FF9338907009846F368474451
:10532000587B1A7B00021043FBF760F9032303400C
:10533000581E83414222DB19E3646563A35CFF2BA3
:1053400001D00133A3542000FFF7A6FDC8E7C046F3
:10535000F8B5DE4657464E464546E0B50500036DB6
:10536000581EFBF747F9A0226B6A06009946EB8AA4
:1053700014219B462B8B22209A466B8D92009846D7
:10538000FBF744FE071E3FD044685846FBF72EF952
:105390002070000A60705046FBF728F9330AA070AD
:1053A0002671000A6371330C360EE070A371484613
:1053B000E671FBF71FF9030A20726372030C000EFB
:1053C000A372E0721248FBF711F92073000A6073B0
:1053D0004046FBF70BF900236A6AA0739446000A63
:1053E000E07323746374A374E3746B8D2A006344C5
:1053F000EB62390028002B1DFEF7E0FE3CBC904616
:105400009946A246AB46F8BD01204042F6E7C046A9
:1054100010500000F0B54546DE4657464E46E0B512
:10542000C36E0500984683B0002B00D1B1E09A22EC
:10543000835CFF2B01D0013383544346DB68587BE8
:105440001A7B00021043FBF7D1F8C30707D5434688
:105450001B89002B03D101331421019302E00023A7
:10546000152101934346DA682220537916791B02ED
:105470003343967936043343D679A02236061E4349
:105480006B6A92009946EB8A9B462B8B9A466B8DF2
:105490000093FBF7BBFD071E00D177E04468584638
:1054A000FBF7A4F82070000A60705046FBF79EF8E6
:1054B000330AA0702671000A6371330C360EE07057
:1054C000A371E6714846FBF795F8030A20726372F0
:1054D000030C000EA372E0722F48FBF787F82073CD
:1054E000000A60730098FBF781F800236A6AA073D2
:1054F0009446000AE07323746374A374E3746B8DA1
:105500007E686344EB62019B002B2DD143464246EB
:10551000310040465B6812891B8940689B1A9BB228
:1055200001221431FBF738FF4346DA6853791079CA
:105530001B020343907900040343D079000618430B
:10554000FBF758F82B6D01301B1A00D528652A008F
:10555000390028002B1DFEF731FE03B03CBC9046FD
:105560009946A246AB46F0BD707B347B00022043D7
:105570000A4C04401120FBF739F8FF2224B22043E3
:1055800083B21B0A104030737373CDE70120404291
:10559000E3E70020E1E7C04610500000FFC0FFFF36
:1055A00010B5FDF739F8144B1B68002B1DD0FAF726
:1055B0008FFFFA3004000620FBF7B2FB002813D05F
:1055C00000230E490E4A0360C3600B68826044608A
:1055D000002B04D107E019001B68002B02D05A6889
:1055E000A21AF8D50360086010BD064B1B68002B9B
:1055F000DDD1054A1360F7E7C03A0020A41000206F
:10560000A1550010D03A00204418002070B50400C5
:1056100043689847FAF75CFF1D4B22681D685519CF
:105620002B1ADE0F002B1ADA15180620FBF778FB71
:10563000002813D0002317490360174BC460836010
:105640000B684560002B04D107E019001B68002B94
:1056500002D05A68AA1AF8D50360086070BD062007
:10566000FBF75EFB0028F9D00B4B0A4983600B68FF
:105670000660C4604560002B04D1EEE719001B688A
:10568000002BE9D05A68AA1AF8D50360E5E7C046AE
:1056900038070020A41000200D560010164B10B53E
:1056A0001A68002A22D1154A1268002A1FD0012246
:1056B0001A60FAF70DFFFA3004000620FBF730FB02
:1056C000002813D000230E490E4A0360C3600B6804
:1056D00082604460002B04D107E019001B68002B96
:1056E00002D05A68A21AF8D50360086010BD064AB5
:1056F0001268002ADBD1F9E744180020C03A0020E4
:10570000A4100020A1550010D03A0020F8B50023C5
:10571000194E4746CE469946184B3500984680B5F7
:10572000174F083518362C68FAF7D2FE24180620D1
:10573000FBF7F6FA00280DD04B4603604346836022
:105740003B68C5604460002B03D05A68A21A0BD591
:10575000036038600835B542E5D10CBC90469946E7
:10576000F8BD5A68A21A03D419001B68002BF8D19F
:1057700003600860EEE7C046D8DB00100D5600104D
:10578000A4100020F8B5CE46474680B5FAF7A0FE33
:10579000134E0500134C144F12E02168002917D056
:1057A0004B68EA1A14D40A68062022608A683B60B3
:1057B0009046CA689146FBF7D9FA4346002B0BD1B5
:1057C0003378002BE9D0FBF707FC21680029E7D1EB
:1057D0000CBC90469946F8BD4846C047F0E7C04625
:1057E000E0390020A4100020380700207047C04690
:1057F000F0B557464E46DE4645467A22E0B5854B23
:105800008A469B5A834901338B524389060089B0EB
:10581000072B00D8A3E0436899467F4B1968586965
:105820009B4601F04BFF4A464B46050050781B78DB
:1058300000021843FAF7DAFE4A464B468046D07813
:105840009B7800021843FAF7D1FE744B1C685B4644
:105850000694002C00D1D8E05B68320003935B46CD
:105860005B699C465B461B6966460593002394462C
:10587000049304E0E2682300002A41D01400628A05
:105880008242F7D1217A002906D02827039AD25DD7
:105890000132D2B29142EDD12268002D28D0002AE7
:1058A00007D0711C05D0574611007F6871400F4228
:1058B000E0D10427217C0F4206D10499002969D048
:1058C000002D01D0711C5CD0A28A4245D2D1626801
:1058D000002A02D005998A42CCD16646002B00D11D
:1058E0008CE0E268DA60069BE3604C4B1C6013E0DE
:1058F000002ADED0B242DCD0E2682300002ABDD10B
:105900006346B4461E00049B002B00D080E0534643
:105910001B6863452BD100244B469A79DB791B0227
:10592000134309D03E4B3289191D009130001121DB
:10593000FAF72CFF00284DD108213000FBF774FC4A
:1059400000283DD1002C2BD0A569002D0FD0434657
:10595000E069320000932100314BA8470AE0083289
:105960008B5A01338B52043A8B5A01338B523000DD
:10597000FBF7ACFC09B03CBC90469946A246AB464E
:10598000F0BD5146049F09683F6807978F429BD03E
:10599000914299D10494A28A424500D06AE796E7E1
:1059A000002D05D15A46F02352691340E02B19D13E
:1059B0008822184B17499B5A01338B520A3AD3E776
:1059C0007E22144B13499B5A300001338B52FBF754
:1059D0007DFCCFE780220F4B0E499B5A01338B523F
:1059E000023AC1E75B4699893000083109B2FBF7FA
:1059F00037FC0321300001F01DFBD9E78E22054B57
:105A000004499B5A01338B5286E75B699C467EE7CB
:105A1000049C81E7E4390020B01E0020D83A002021
:105A2000C01E0020F0B5CE46474680B5002900D103
:105A30006DE0002800D16FE0394E3568002D39D077
:105A4000A84242D02B0001E098423ED0DB68002BF8
:105A5000FAD19C46002A3CD00C682B00002C03D1C4
:105A60001FE0DB68002B0FD09842FAD0598A914290
:105A7000F7D119688C4201D00029F2D108204042A8
:105A800008E043460C681A80634604604282002B9B
:105A900017D000200CBC90469946F0BDDB68002B67
:105AA000F2D08342FAD0598A9142E7D0DB68002BCA
:105AB000F7D1E9E700239C46002A0AD00B6842820E
:105AC0000360C56030600020E4E701239C46002AA3
:105AD000C2D1144B802798461A88134BFF01994670
