:020000041000EA
:1000000000B5324B212058609868022188439860DF
:10001000D860186158612E4B002199600221596106
:100020000121F02299502B49196001219960352056
:1000300000F044F80222904214D00621196600F024
:1000400034F8196E01211966002018661A6600F04E
:100050002CF8196E196E196E052000F02FF8012189
:100060000842F9D1002199601B49196000215960AB
:100070001A491B48016001219960EB211966A021F2
:10008000196600F012F800219960164914480160C1
:100090000121996001BC002800D000471248134993
:1000A000086003C880F30888084703B5996A0420EC
:1000B0000142FBD001200142F8D103BD02B5186610
:1000C0001866FFF7F2FF186E186E02BD00000240BE
:1000D000000000180000070000035F00212200005C
:1000E000F4000018222000A00001001008ED00E03C
:1000F00000000000000000000000000074B24E7A12
:1001000000200420F7010010C3010010C5010010F9
:10011000C1010010C1010010C1010010C101001097
:10012000C1010010C1010010C1010010C701001081
:10013000C1010010C1010010C9010010CB01001065
:10014000CD010010CD010010CD010010CD01001037
:10015000CD010010CD010010CD010010CD01001027
:10016000CD010010CD010010CD010010CD01001017
:10017000CD010010CD010010CD010010CD01001007
:10018000CD010010CD010010CD010010CD010010F7
:10019000CD010010CD010010CD010010CD010010E7
:1001A000CD010010CD010010CD010010CD010010D7
:1001B000CD010010CD010010CD010010CD010010C7
:1001C00000BE00BE00BE00BE00BE00BE00F04BF888
:1001D000103800BEF2EB8871245900104C59001001
:1001E0003402001090A31AE700202149086006C8D5
:1001F00081F3088810471F48006800282FD10DA4FC
:100200000ECC002902D000F012F8F9E71A491B4A77
:10021000002000E001C19142FCD1194988471949E9
:1002200088471949884700BEFDE701C901C29A42C3
:10023000FBD370474C590010C00000206003002021
:10024000F85B00100000042000000420F85B0010A0
:1002500000100420001004200000000070470B482C
:1002600001F076FF0047EFF30580C0B27047000051
:1002700008ED00E0000000D0700300209C24002066
:100280001119001065060010011A001057560000E1
:1002900006005250ABB3605358570010060052503E
:1002A000861C030268570010060052505422A29D7B
:1002B0008457001005005250DE65F468F85B0010AA
:1002C000F8B5C04610B5064C2378002B07D1054B76
:1002D000002B02D0044800E000BF0123237010BDB2
:1002E000700400200000000030550010044B10B5D1
:1002F000002B03D00349044800E000BF10BDC046F6
:10030000000000007404002030550010FA22024B57
:1003100092001A607047C04648020020FA22014B42
:100320001A60704748020020014B024A1A60704769
:1003300048020020C4090000FA22024B92001A6011
:100340007047C0464802002070B54B7904008EB05B
:10035000042B04D00020022B10D00EB070BDCD783D
:10036000012D20D00020022DF7D14B78012BF4D1A4
:1003700001AA2000137004F09BFCEEE7CB78012B60
:1003800052D0022BE9D14B78022B63D0012BE4D160
:100390008B7835485B001B5A01AA1380200002238A
:1003A00004F086FCD9E74A78012A4BD00020022AC3
:1003B000D3D101AA13806B462C4E1881DE800A230C
:1003C0006B441E8058800E236B4418805880122383
:1003D000274E6B441E80588016236B441E80588025
:1003E0001A236B44188058801E23224E6B441E80B3
:1003F0005D8022236B441E805D8026236B44188021
:100400005880EE262A23F6016B441E805D802E2341
:100410006B441E805D8032236B44188058803223E9
:10042000200004F045FC98E74B78012B00D094E7BE
:100430008B78114801AAC35C20001370012304F0DB
:1004400037FC8AE70D4B01AA1B680193042304F0D3
:100450002FFC82E701AA1000094B60CB60C0082383
:10046000200004F025FC78E75C0A002044ACFFFF84
:1004700080BBFFFF88580000580A00204C02002073
:100480003055001010B54B79022B1DD00020042BE5
:1004900000D010BD4B78012BFBD1CB78012BF8D1CC
:1004A000CB798C791B022343042BF2D1517813783A
:1004B00009021943937801301B041943D378154A74
:1004C0001B060B431360E4E74B780020012BE0D1BF
:1004D000CB78012B11D0022BDBD1CB798C791B028D
:1004E0002343022BD5D1537810788A781B020A490E
:1004F0000343520001208B52CBE7CB798C791B024E
:100500002343012BC5D100208B781056034AD054C9
:100510000120BEE74C0200205C0A0020580A00209F
:100520000B79012B01D0012070478B78002BFAD179
:10053000FA22024B92001A60F5E7C04648020020FA
:100540000B798A78012B0CD000210F4B1960002AFF
:1005500005D00E4B9B18013B1A780D4B1A700120E9
:100560007047002A0CD019210A4B19600021064B54
:100570001960064B9B18013B1A78054B1A70EEE781
:10058000014B1A60EBE7C046781300203855001085
:100590007C130020480200200A0010B50020034907
:1005A00003F0F8FF024B1860012010BD600A002024
:1005B0007813002001207047F8B5264C2268002AE5
:1005C00005D0254B1B78102B02D0182B1FD0F8BD5F
:1005D000D30F9A185310214821495F003F189C46B9
:1005E0000E0087420BD90025435F0222855E5B1017
:1005F0006D105B190430338002368742F3D86346AE
:1006000000209AB203F0D6FF00232360DFE7032621
:10061000D3171E40B6181148B610B6003618104948
:1006200086420DD9FF230F009C46036845685B1086
:100630006D105B1965460830AB4308C78642F4D895
:10064000D30F9A185210002092B203F0B3FF002388
:100650002360BCE7781300207C130020600A002090
:1006600070100020F8B5CE46474680B502F0B8FAC3
:1006700004F0AEFB01239946154C164E164D03F0BF
:1006800029F8FFF799FF00F013FE236837689846B2
:10069000002913D0FA220023920001F0C9FD43463D
:1006A000C01AB842EBD33B0028784344236002F0E1
:1006B000AFFA4A462B7853402B70E0E7FA218900C5
:1006C00001F074FD4346C01AB842D8D3EBE7C046E8
:1006D000340A002048020020540A002000487047D5
:1006E000CC560010004870478855001070B500289F
:1006F00025D0052830D8194B8000C658300004F0AA
:10070000B5FEC0B2041C1F2814D8E4B2002820D0C3
:100710000023134DAA1CF15C01331180D9B20232BF
:100720008C42F8D8C023013464009B001C4328008D
:100730002C8070BD1F24E4B20028E9D109E0C12457
:10074000074D064B02221968A81C02F055F8A400B8
:10075000EDE7044C024DEAE70020EAE750020020F2
:10076000A404002002030000094A830094464022AA
:10077000634410B51C68C0006240C024144080224D
:10078000520113431C60034B9C466044416010BD02
:1007900004C0014000400140034BC0009C4660443F
:1007A00043681F2018407047004001400A4B8000FA
:1007B0009C4604236044002901D00C230821002A10
:1007C00000D10B00026853400C221A4080235B01C9
:1007D000184302607047C04604C00140074BC00088
:1007E0009C466044036809045940C0239B02194099
:1007F00080235B01184301607047C04604400140FC
:10080000074BC0009C466044036809035940C0235D
:100810009B01194080235B01184301607047C0466B
:10082000044001400123D022834012069362936169
:10083000094A83009446402263441968C0004A4034
:10084000C02111408022520113431960034B9C4682
:10085000052360444360704704C0014000400140EC
:10086000F8B5EFF3108772B60E4E3368002BFCD04C
:10087000BFF35F8FCB08C4180725A446C45C0123CF
:100880000D40AB4018002040234208D1624623436C
:100890001370BFF35F8F306087F31088F8BD1000CE
:1008A00001F0B0F82C0100D0F8B5CE4647468C4692
:1008B00080B5EFF3108872B6214D2C68002CFCD067
:1008C000BFF35F8F9A422CD8D4080721055D061923
:1008D000012411408C402C421FD007218946063943
:1008E00009E0D408055D06194C460F001440A740E6
:1008F0003C002F4211D001329342F2D201204042FB
:10090000BFF35F8F00220E4B1A6088F31088002817
:100910000FDB0CBC90469946F8BD2C431000347098
:10092000EEE7BFF35F8F00232B6088F31088012070
:1009300040426346002BECD0089801F063F8C046B3
:100940002C0100D0024B18688007C00F7047C046CA
:1009500000C006408023DB051868000F7047C046C2
:100960000021044B044ABFF35F8F02C39342FAD1C4
:100970007047C046000100D0800100D0044A1078C2
:10098000431CDBB2172B00D9102313707047C046ED
:100990006802002000B5054B83B0010000931822C7
:1009A0001F230348FFF780FF03B000BDE05600108F
:1009B00098050020F8B5040006200D0001F09EF90E
:1009C000002845D02B4B2C49E3185A425341802232
:1009D000D20394465B421340284A63441360284A7A
:1009E000136018008A689043FBD1224B8021E318E2
:1009F0005A425341234A5B0049000620995201F0B4
:100A00007DF92900C00001F0D1FBC30921D14027A5
:100A10000122260080256262A36200232C36AD01EC
:100A200035432B60062001F069F93900800001F0A0
:100A3000BDFB6023E26A53406E221A4080235B01B3
:100A400033431A60104B236310232B600D3BA364C8
:100A5000F8BD0E4A934203D900230D4F0D4AD8E743
:100A60007F221040013040089F011A003F18030008
:100A7000CFE7C0460080FCBF00C0004000E000405F
:100A800000F000408013002001030000FEFF000082
:100A9000C0FF3F00FFFF000083680B4810B584468D
:100AA00061446244090112019A18591854684B684C
:100AB00001209C4201D802D00020C0B210BD1268B3
:100AC0000B689A42F9D8F7E7FFFFFF0F0A4B196846
:100AD000EFF3108072B60A68002AFCD0BFF35F8F74
:100AE0001B68BFF35F8F00221A6080F3108840BF3D
:100AF000002000217047C046300A0020F8B5574654
:100B00004E464546DE46E0B5434D81468A466A6814
:100B1000EFF3108872B61368002BFCD0BFF35F8F21
:100B20002E68B47B002C3ED0670033683F19033F2A
:100B3000DA195378B373002B00D1F3730023937049
:100B400053701370A968354A8C464946A2181201A1
:100B500062441160514651603149D36091603268FE
:100B6000D219937053701370737B9B46002B35D052
:100B700022001900B068736898473268002820D0B6
:100B80005B4658465B005B44D719033BB870D118ED
:100B9000D35C002B00D07B705B460C7073735C459C
:100BA0001DD0002626E06B68BFF35F8F1C6088F3C2
:100BB0001088012040423CBC90469946A246AB4674
:100BC000F8BD5B465B005B44033BD3189C70D119B6
:100BD000D25D002A00D05A705B460B7074734A468F
:100BE0005346287D00F0DEFB061EDAD0210028687F
:100BF00000F050FEEB686A681B19013B1B78BFF3DD
:100C00005F8F0021116088F310880020002ED2D160
:100C100018022043CFE7C0466C020020FFFFFF0F01
:100C2000CD0A0010F8B5574645464E46DE46E0B5BB
:100C300099460CAB19780DAB1B78050090469A4687
:100C40000768002912D1BE7B002E45D074003B6896
:100C5000A419033C1B195A783100BA73002A00D139
:100C6000FA7300229A705A701A7003E00E004C005A
:100C70006418033C2C4B00229C46AB6861449C46A4
:100C80004346090161440B604B464B600A9B8B60F5
:100C90000B9BCB603B681B199A705A701A707B7B58
:100CA0009B46002B2CD032005946B8687B68984789
:100CB0003A68002817D05B4658465B005B4414191D
:100CC000033BA070D118D35C002B00D063705B464F
:100CD0000E707B73B34514D030003CBC90469946EF
:100CE000A246AB46F8BD5B465B005B44033BD318B2
:100CF0009E701119125D002A00D05A705B460B706D
:100D00007E7342464B46287D00F04CFB041E06D005
:100D10005346002B03D13100286800F0BBFD0E9B29
:100D2000002BD9D01C70D7E7FFFFFF0FF0B5DE46D0
:100D30004E46574645460023E0B58DB00A936B4BAF
:100D40008200D3580B90994600239B464B4607934D
:100D500000F0AEFA079C06000F006268EFF3108502
:100D600072B61368002BFCD022000794BFF35F8F8C
:100D70002468637B9946002B67D092685C4B904651
:100D80004B441B01984443461A685B6810001900E5
:100D9000801BB94100295FDD0B9800F003FB0023A5
:100DA0000026984600279A46079C6368BFF35F8F2A
:100DB0005A461A6085F310885346002B08D1002844
:100DC000C6D10DB03CBC90469946A246AB46F0BD9C
:100DD0000A9B414618024B461843D0470890099198
:100DE0006268EFF3108572B61368002BFCD007948D
:100DF000BFF35F8F0899099A002A48DB114303D09B
:100E0000079B1B69002B5DD1079B1B68DA7B002ABF
:100E100007D051008A1819688C4649466244033A43
:100E200051704A46DA734B46079A013BD168CA5C57
:100E30000132CA545B46079A13615368BFF35F8F50
:100E40005A461A6085F3108882E7002300269846E8
:100E500000279A460020A7E7002901D100289BD14E
:100E60000021200000F078FC43461E685F689B6804
:100E7000079A9A464346DB689846D3684B44013B41
:100E80001B780A931B020343136100208CE723693C
:100E9000002BB9D033003C005B1A94411A002300A8
:100EA000A74219D89F421BD05946049101210391B2
:100EB0004946029141460191514607980091FFF73A
:100EC000B1FEB7E700F0F4F9089A099B06000F009D
:100ED00092197B419942E5D901225242D317E3E7A7
:100EE0009642E1D901225242D317DDE71C0A0020C5
:100EF000FFFFFF0F10B5124C6368002B04D00A21CE
:100F0000104800F0E1FA10BD23000F4A10212068BC
:100F100000F040FB032000F0BFF9032000F0B4FA1A
:100F200003200A4900F0F8F9FFF728FD084B9C461A
:100F3000032360442375074B80006060DC60DEE7BC
:100F40006C020020300A0020990A00102D0D0010BC
:100F5000400000341C0A0020004870476C0200204A
:100F6000F0B557464546DE464E46E0B585B001939E
:100F700010AB1B7800270393002380469A4600920B
:100F800043465A68EFF3108972B61368002BFCD001
:100F9000BFF35F8F43461D68AC7B002C4FD06600CB
:100FA0002B683619033E9B195A78AA73002A00D180
:100FB000EA7342469F705F701F709268524B94466E
:100FC0000099019AE3181B01634419605A600E9A54
:100FD0009A600F9ADA602B689B199F705F701F7080
:100FE0006B7B9B46002B46D022001900A8686B68DB
:100FF00098472A68002831D05B4658465B005B441E
:101000009619033BB070D118D35C002B00D07370DD
:101010005B460C706B735C452ED04346DB681B1936
:10102000013B187843465B68BFF35F8F1F6089F30D
:1010300010885346002B2ED10002204307E05B6846
:10104000BFF35F8F1C6089F310880120404205B018
:101050003CBC90469946A246AB46F0BD5B465B0061
:101060005B44033BD3189C709119925D002A00D019
:101070005A705B460B706C734346187D009A019B57
:1010800000F090F982460028C7D043462100186836
:1010900000F000FCC1E7039B002B32D00E9B002028
:1010A0000F999847030004000D000B4329D0002935
:1010B0000DDA0098019902000B00121BAB41994216
:1010C00015D81AD000920193039B9A4658E700F076
:1010D000EFF802000B00A4185D41200029000090E9
:1010E0000191AB4203D8EFD100998A42ECD9012398
:1010F0005B42DC1700930194E6E700999142E1D945
:10110000F5E70020A3E7C046FFFFFF0FF8B5CE4686
:10111000474680B506000C00FFF7F0FC00280CDC09
:101120002D4B0020596A8C4203D89B6A0130B34290
:1011300045D30CBC90469946F8BD20BF274D6A6840
:10114000EFF3108772B61368002BFCD0BFF35F8FEC
:101150002B68C1B29C465B7B8B4235D0FF2303409A
:101160005A00914662461268994490464A46424463
:10117000033A9278002A1DD0EA68000A9046434458
:10118000013B1B78C0B2834221D06B68BFF35F8FF5
:1011900000221A6087F310880F4A0020536A9C428D
:1011A000C7D8926A0130B242C3D2E41A601E8441A9
:1011B000E0B2BEE72B699842E7D12A61E5E7641AFD
:1011C000601E8441E0B2B4E7FF230340D4E76046E9
:1011D00000F060FBD9E7C046004005406C020020EB
:1011E000F0B5D6464F464646C0B5EFF305833F22DD
:1011F000134018001038EFF3108C72B6204D2A6897
:10120000002AFCD0BFF35F8F0122110081401D4CEA
:10121000884661631C4917000E788A463100C14038
:101220000F400A4215D019498200646A51588C4215
:1012300019D3174BD25843469E4353461E70BFF3F3
:101240005F8F00232B608CF31088002A06D0904714
:1012500004E0BFF35F8F2F608CF310881CBC9046B6
:101260009946A246F0BD0B4A9B00904643441A683B
:101270001A60BFF35F8F00232B608CF31088EDE7BB
:10128000280100D000400540550A0020380A0020FF
:1012900088050020D03F054010B50100024A0348F0
:1012A000FFF7DEFA10BDC046FC560010520A0020BF
:1012B000034B596A0A00986A596A8A42FAD1704700
:1012C0000040054070B504000D00124A536A190031
:1012D000966A536A8B42FAD13000190024184D41A6
:1012E000AB4211D80ED02B000A494A6A9A42FCD36D
:1012F00007D1084A02E0516A994202D1916AA1429B
:10130000F9D370BDA642EED9012301246442E5174A
:101310005B42E9E70040054070B504000D00EFF3C3
:10132000108672B61A4A1368002BFCD0BFF35F8F89
:10133000002D1BD0200000F0F9FC164981420AD094
:10134000200000F0FBFC0121200000F0DDFC012367
:10135000A340114A1360114BA400E550BFF35F8F07
:1013600000220B4B1A6086F3108870BD0B4BA20055
:10137000D5500122A2400A4920000B7893430B70FC
:10138000044900F005FD0021200000F0BDFCE5E768
:10139000280100D0E11100103860054088050020C8
:1013A000550A0020F0B54F46D6464646C0B5070060
:1013B000304C616A0D00A66A616AA942FAD18B427B
:1013C00008D805D001201CBC90469946A246F0BD25
:1013D000B242F7D9EFF3108972B6274801680029A5
:1013E000FCD0BFF35F8F01252449BD408C460978AE
:1013F000204C0E002E438846F1B28A466146504684
:101400000870391D1E48890065630A51B9000B50E8
:10141000216A0020294219D0616A0800A66A616A1F
:101420008142FAD18B4219D801D1B24216D8C245B5
:101430001DD0104B1F201D625D6301230740BB4080
:10144000104A1E381360634642461A70BFF35F8F1E
:101450000022094B1A6089F31088B4E70020BFF31B
:101460005F8F0022044B1A6089F31088ABE70120DC
:10147000ECE7C04600400540280100D0550A002096
:10148000380A002080E200E010B5EFF3108472B655
:101490000A490B68002BFCD0BFF35F8F0123834008
:1014A000074A0848136202789A430270BFF35F8FBD
:1014B00000230B6084F3108810BDC046280100D0C3
:1014C00000400540550A0020024B9C4661448900BB
:1014D000016070474000003410B50400FFF74EFA79
:1014E00001002000FFF7F0FFFF232371BFF35F8FA0
:1014F00010BDC04610B50400FFF740FA01002000FF
:10150000FFF7E2FFFF23A380BFF35F8F10BDC0464C
:1015100010B504000120FFF73DFA034BC3189B00F0
:101520002360BFF35F8F10BD4000003470B505002D
:101530000E001400002924D0002A24D080686B6893
:101540009847296800280ED063001B197200033BDE
:101550009219CB18033A9E7088188A5C002A14D11D
:10156000047030000EE073009B196200033B1219F7
:10157000CB18033A9C7088188A5C002A00D05A70F5
:101580000670200070BD0800FCE75A70047030003F
:10159000F8E7C04630B583600023CCB24373013313
:1015A000047342608373C4730D000068012C06D974
:1015B000421C0133DBB2137003329C42F9D1FF218C
:1015C00029404B005918002340180338437030BDA0
:1015D000F8B5CE46474606000C0080B5002907D076
:1015E0004D0003686D18033D5A195778002F04D138
:1015F00020000CBC90469946F8BD7900C919033902
:10160000884643445978894600215970517073685F
:101610003A002100806898473368002814D0424679
:101620009A18947059195B5D002B00D053700F709D
:10163000270049463000FFF7CBFF39000200300099
:10164000FFF774FF0400D3E7424641465D19AF70CF
:101650009A185B5C002B00D06B701470E9E7C046F1
:10166000F0B557464546DE464E46E0B50D006B00E8
:1016700001685B19DF1E0400C85D83B00192CA19BE
:1016800000284CD043001B18033BCB185E78B446AF
:10169000002E16D1019E002E3ED0E67B002E04D0F7
:1016A00073009B19CB18033B5D70E57300282FD1A5
:1016B0000023537003B03CBC90469946A246AB460B
:1016C000F0BD72006244033A89184A7890460022BD
:1016D0004A7091465A70010032002000FFF726FF41
:1016E00043468246002B07D05B0021684344033BFE
:1016F000CB185A78002A16D1424651462000FFF7EF
:1017000015FF2168019BCA19002BC6D10028CFD034
:1017100043001B18033BCB1800219970C8E7019BBD
:10172000002BBAD1C4E75000801803380918487854
:10173000834648464870587041462000FFF7F6FE41
:10174000594680462000FFF743FF41460200200033
:10175000FFF7ECFE8046CFE7F0B54E464546DE4645
:101760005746E0B5467B040075000068AD19033D9F
:1017700083B00191415D421900294ED04B005B18A6
:10178000033BC3185F78BC46002F18D1019D002D84
:1017900040D0E57B002D04D06B005B19C318033BE0
:1017A0005E70E673002931D10023300053706173FD
:1017B00003B03CBC90469946A246AB46F0BD7A00C9
:1017C0006244033A80184278934600224270914660
:1017D0005A7020003A00FFF7A9FE5B468046002BB6
:1017E00007D05B0021685B44033BCB185A78002A82
:1017F00017D15A4641462000FFF798FE019B010091
:1018000020684219002BC4D10029CDD04B005B18B1
:10181000033BC31800209870C6E7019B002BB8D18A
:10182000C2E75000801803380918487882464846B5
:101830004870587059462000FFF778FE534683469B
:10184000002B07D05B0021685344033BCB185A7828
:10185000002A06D1594652462000FFF767FE83460C
:10186000C7E7500080180338091848464F78487079
:10187000587051462000FFF759FE3900814620007C
:10188000FFF7A6FE494602002000FFF74FFE824602
:10189000E0E7C04670B5040000292CD0437B8B42A2
:1018A0002ED0056848004018033828188278002A8E
:1018B00021D053009B18033BEA5CEE188A4202D108
:1018C0001BE0002A08D053009B18033BEB185A7802
:1018D0008A42F6D142785A70002301228370437005
:1018E0002000FFF7BDFE617B02002000FFF71EFE17
:1018F0006073012000E0002070BD43783370EBE797
:1019000001221900FFF7ACFE60730120F4E7C04626
:101910002C4B2D4A70B51A602C4A2D4B2D491A605C
:1019200010008B689843FBD12B4C2C4B9C4209D266
:10193000013B1D1BAD080135AD002D1908CC9847A2
:10194000AC42FBD100F07CF8254A214B1A60214AB9
:101950009368DB018033FBD14022224B224C234D84
:101960009A675A671A67DA66AC4208D22368200081
:10197000002B21D00834FFF7BDFDAC42F6D31C4C40
:101980001C4DA168C022280000F036FFA560FEF7BC
:10199000E7FF00F035FBFFF7ADFA174C174B9C4201
:1019A00009D2013B1D1BAD080135AD002D1908CC36
:1019B0009847A542FBD170BD0834FFF78DFDAC42BE
:1019C000D4D3DCE700E00040BFCDFBFEFE7F3C004F
:1019D00000F0004000C000404803002058030020F1
:1019E000FFFFFF0100F001404003002048030020FA
:1019F00000ED00E0000000205803002060030020FC
:101A000000BEFDE70FB400B5084883B001F01EF832
:101A1000049B002B07D005A91800019100F078FB6A
:101A2000034801F013F800BEFDE7C0462057001040
:101A30003057001010B50148FFF7E4FF345700108D
:101A400030B50C2083B000F03FFBFEF77BFF002891
:101A50000ED0944B944A1A605A609A60DA601A6108
:101A60005A619A61DA611A62904A5A6203B030BDD3
:101A70008F4CA06700F030FB01228E4B1A60636C24
:101A8000012BFCD103228C4B1A60894A936B012BEA
:101A9000FCD102240121894A89480533009400F0D1
:101AA000C1FA0523874A01218748009400F0BAFA59
:101AB000864B5A68FF2A02D8802252005A60802240
:101AC000784C7D4B21691201804D1A60002905D0A8
:101AD000606900F06BFB01300138FDD1E0217B4BE8
:101AE00002201A681140802252012A4311601968AD
:101AF000484003210140116004219A681142FCD042
:101B00008022802192012A43090111608022520023
:101B10005A606F4B23616F4B5968FF2900D85A6098
:101B200003226C48634B01211A600200936819423A
:101B3000FCD0E02513681D4080235B0103431D603A
:101B400012684A400321114019600221614A9368DA
:101B50001942FCD0802380219B01034309011960B5
:101B600080215D4B4900516063615C4B5A68FF2ADC
:101B700000D8596080225A4BE1691201574D1A6012
:101B8000002905D0606900F011FB01300138FDD15A
:101B9000E02252490B681A4080235B012B431A60F4
:101BA000802380229B012B4312011A6080223E4B2E
:101BB00052004A60E3614B4B5968FF2900D85A60D4
:101BC0008022494B216A1201464D1A60002905D036
:101BD000606900F0EBFA01300138FDD1E0224149A3
:101BE0000B681A4080235B012B431A6080238022FC
:101BF0009B012B4312011A60802380225B004B6003
:101C0000294BD2022362394B5968914200D25A6063
:101C10008022374B616A1201344D1A60002905D0C9
:101C2000606900F0C3FA01300138FDD1E0222F498C
:101C30000B681A4080235B012B431A6080238022AB
:101C40009B012B4312011A608023DB024B60174B70
:101C50006362284B5A68FF2A02D8802252005A60D9
:101C60008022254BA1691201224D1A60002905D05E
:101C7000606900F09BFA01300138FDD1E0221D4976
:101C80000B681A4080235B012B431A60802380225B
:101C90009B012B4312011A6080235B004B600E4BAB
:101CA000A361E3E69C050020006CDC021BB700008A
:101CB000008000403CB0004030B00040002F685928
:101CC0000080024000389C1C00C002403080004070
:101CD000001BB7003C80004040597307548000400F
:101CE00054B000406080004060B000406C80004014
:101CF0006CB000404880004048B00040014B80007C
:101D0000C05870479C05002001238340002904D05F
:101D1000034A1360034A13607047034A1360FBE7EA
:101D200080E200E000E100E080E100E0024B1030E2
:101D30009B688000C058704700ED00E070B50D0052
:101D4000EFF3108672B60F4A1368002BFCD0BFF376
:101D50005F8F0D4B10309B6884001B590B4A9342D8
:101D600003D09D4201D0FFF765FE074B9B681D51D4
:101D7000BFF35F8FBFF35F8F0022024B1A6086F3C1
:101D8000108870BD240100D000ED00E0CD010010EE
:101D9000F0B5DE4657464E464546E0B50C0083B0EA
:101DA000EFF3108A72B65B4A1368002BFCD0BFF3C6
:101DB0005F8F1022914681444A46574B96009B689C
:101DC0009D59564B98469D4205D0A54216D0544F7A
:101DD000EB1B2F2B14D9504B9B689D51BFF35F8F8A
:101DE000BFF35F8F00224B4B1A608AF3108803B059
:101DF0003CBC90469946A246AB46F0BD1D00EAE7C2
:101E0000012383409B465A46464B1B681A4000926A
:101E10005A46454B1A60BFF35F8FFEF724FA0190D4
:101E2000002803D0814501D0FFF704FE01232A00DA
:101E30009A4313003D49DB1B5B415943090D9368ED
:101E40009C4208D15BE043001B189B00FB1898687C
:101E5000A04211D01A00062010560028F3DA009B89
:101E6000002B05D05A46324B1A602E4B1A60B2E74F
:101E70005A462D4B1A60AEE706201856002822DB82
:101E80004200111889007C188846A1689960E179A0
:101E9000D971062161569971A1797F291FD8A4882B
:101EA000F91A6405241544440919E0240905490D6B
:101EB00024022143998012181E4B9200BF181A78F1
:101EC0001870BA71CBE7019800280BD1FF309071E0
:101ED00019489080174A107811709871BFE7BD219A
:101EE0000902E7E7154A1649D21A083A5002400D8E
:101EF00001439980134952080A43DA80AFE706206C
:101F0000105613000028BBDA019A002AEAD1454690
:101F1000E0E7C046240100D000ED00E0CD01001054
:101F20009402002000E100E080E100E0AAAA0000A5
:101F300080E200E0530A002000BDFFFFCE02002037
:101F400000F0FFFF00F8FFFFF8B50125040005438E
:101F5000FEF789F90300EFF3108672B621490A688B
:101F6000002AFCD0BFF35F8F1F4A20001F49801A50
:101F700040414143090D1E489B00876849B2FF5804
:101F8000AF421CD00623D3568B421CD01223D3560B
:101F90008B4222D01E23D3568B4220D02A23D356E5
:101FA00003208B4210D0134B1A781970A271BFF323
:101FB0005F8F00220B4B1A6086F31088F8BD826891
:101FC0000D48D050EFE7002043001B189B00D218AB
:101FD000FF239371094B9380E5E70120F4E702208A
:101FE000F2E7C046240100D094020020AAAA000013
:101FF00000ED00E0530A0020CD01001000BDFFFFFE
:10200000054B064A1360064A136053609360D36021
:1020100013615361936170478080808000E400E029
:1020200004E400E0F8B504000C2017001D000E00C9
:1020300000F0BCF84101091A8B01591AC9000918AE
:102040008901380000F0B2F8069A2B0412031343FA
:102050002268002A21DB184AA21851424A418021F5
:1020600049018C4652420A40144962440A601449AC
:102070000A60144917008D68AF43FBD1C021221DAF
:102080008901114321222660A0600A602268002A8B
:10209000FCDAE36008230B60F8BD3F2221680A40A8
:1020A000B242D8D1A2681205120D8242D3D1E268A1
:1020B000002BD0D1F0E7C0460040FDBF00E000405B
:1020C00000F0004000C000408023024A9B00034310
:1020D000D362704700800540AA23064A1B011360A3
:1020E0002F230549D360054B19605368002BFCDA98
:1020F0007047C0460040024000B0FA000060024055
:1021000010B5002800D110BD00F04EFCFBE7C04622
:1021100010B5094A0300146884B0002C08D00122CD
:1021200000910648524203A9A047012004B010BD07
:1021300000F08CFC0020F9E7100A002001210010BB
:1021400001480421014B1847E002002071210010D2
:10215000142310B50100188804331B88984710BD5C
:10216000162310B50100188802331B88984710BD4C
:10217000F0B5C64600B5002916D014230400012589
:1021800098461827890046184346216818883B88D6
:10219000984701C4431E984140420540A642F3D1EE
:1021A000280004BC9046F0BD0125F9E7114A936F61
:1021B0009B0813D210665166002905D0FFE7FFE7A0
:1021C000FFE7516F106F704704B5002801D0002061
:1021D000C04303F08DF9002104BDC046F0B5146E74
:1021E000556E576F166FFFF7E5FF14665566576714
:1021F0001667F0BD000000D094464E4A926F9208D8
:10220000624601D230E0C046F0B54A4EB56F6D0867
:10221000FCD3346E756E776F366F00F025F89446F8
:10222000444A14665566576716676246F0BDC04655
:102230009446404A926F9208624601D258E0C046E6
:10224000F0B53C4EB56F6D08FCD3346E756E776F8C
:10225000366F00F04DF89446364A14665566576757
:1022600016676246F0BDC046002B24DB11D0002962
:102270003EDA00B5C943404200D1013100F038F8E0
:10228000C943404200D10131DB43524200D1013306
:1022900000BD002AEBD1002801D1002905D0002083
:1022A000C90FC90701D1C043410800B503F018F9AF
:1022B0000022002300BD00B500290ADBDB435242A7
:1022C00000D1013300F014F8C943404200D101317C
:1022D00000BDC943404200D10131DB43524200D12D
:1022E000013300F005F8DB43524200D1013300BD59
:1022F000002923D1002B18D1002A0CD0BC460D4F49
:1023000038667A6600210023FFE7FFE7FFE77A6F70
:10231000386F67467047002801D00748010000B5B4
:1023200003F0DEF80022002300BD02000B000020B5
:1023300000217047000000D0FFFFFFFF002B00D0FE
:10234000BFE0130C28D1002AE7D080B4114F3966C2
:102350007A66FFE7FFE730B4040C7B6F396F1B042C
:1023600023433B667A66FFE7FFE7FFE7C04684B298
:102370007B6F3D6F1B0423433B667A66FFE7FFE7F5
:10238000C04600232C042D0C7A6F386F0019694168
:10239000B0BC7047000000D0F0B594460025140E84
:1023A00001D112020835140F01D112010435940F26
:1023B00001D192000235D40F01D152000135D40B66
:1023C0000134254F7C66254C3C660E0C93B2FFE72A
:1023D000FFE7FFE73C6F6643360C7703BE46734367
:1023E000DF0B5B04C01AB941130C7343DB18C91A25
:1023F000CE086643360CB64493B273431F0F1B01DD
:10240000C01AB941130C73431F0B1B05C01AB94105
:10241000860D8F023E436643360C092D24DB520A9B
:102420007243801A7703460A6643360C16235B1BF9
:10243000DE40DF40BF1964466643821B70460435A8
:1024400006330100D940A840C01900D30131A2428F
:1024500006D20023F0BD0000000000D0FFFFFFFF08
:10246000121B0130F3D3F1E709277F1BFE406446BE
:10247000A2B27243801A00D20139220C7243130CAB
:102480001204821A99410B0070460435133701007B
:10249000F940A840801900D30131002B02D1A2429B
:1024A0000AD2F0BD013000D30131121BFAD2013B38
:1024B000F8D1A24200D2F0BD013000D30131121B8D
:1024C000F7E7F0B51C0C00D080E00CB400251C0A26
:1024D00004D11B02160E3343120208351C0B04D123
:1024E0001B01160F3343120104359C0B04D19B00D2
:1024F000960F334392000235DC0B02D192185B41F8
:1025000001351C00971864410134464F7C66464CE7
:102510003C660E0CFFE7FFE7FFE7C0463C6F6643F3
:10252000360C7703BE4697B27743C01B00D2013901
:10253000C01B00D201399FB27743C91BC91B170CBE
:1025400077437E04FF0B801BB941CE086643360CEF
:102550000C2D33DBB644120B1F053A431B0B97B20D
:102560007743C01B00D201399FB27743C91B170CB8
:1025700077433E043F0C801BB941860D8F023E43DA
:10258000664329277F1BFE400C3D7746AF40BF19AD
:1025900030BCA2B2ABB272437343801A9941220C91
:1025A0007243130C1204801A994102000B00013788
:1025B000001BA941F9D2781E0021F0BD0C277F1B1A
:1025C000FE4077467F0BAF40FF19E0E700245D1C1B
:1025D00007D0144F7D663966FFE7FFE7FFE7FFE7A7
:1025E0003C6F95B29EB265436643401BB141150CEA
:1025F0001E0C6543664336042F0C3E432D04401BDE
:10260000B141994204D202000B0020000021F0BD2C
:1026100001D19042F7D3801A994101349942F2D303
:10262000F6E70000000000D0FFFFFFFF132370B5A6
:102630001D78012D15D010DD2748FFF791FD274C9F
:1026400001008022200000F0D7F8022D06D0244897
:10265000FFF77EFD234B186070BD204C224AA26418
:10266000F5E72E001D4C204AA3085B421E401D4288
:102670002FD0330022602020B1006118801B0A6037
:102680004A608A60CA600A614A618A61CA610A62F4
:102690004A628A62CA620A634A638A63CA630A64D4
:1026A0004A648A64CA640A654A658A65CA650A66B4
:1026B0004A668A66CA660A674A674008102803D1D4
:1026C0008A67CA67A264C2E71E339B00E250A26415
:1026D000BDE70023CFE7C046534400008413002029
:1026E0004C3300002C0A0020ED26001007B5604690
:1026F00001880A0A0230DF2AFAD1C9B2820804D35B
:10270000028840880004104300E00068014A5050ED
:10271000039007BD8413002051434343C9188C46DE
:10272000110C83B24B4310B4040C614392B280B2DB
:10273000504362431C041B0C001910BC5941130484
:10274000120CC0185141614470470000132310B5AA
:1027500012481C78FFF704FD0100012C0AD003DDAC
:1027600080220F4800F048F80E48FFF7F1FC0E4BAE
:10277000186010BD0A4C5422200000F03DF80B4BAD
:102780006365A365E36523666366A366E366236703
:102790006367A367E3672362E361E5E753460000ED
:1027A000841400204C3300002C0A0020B1270010B4
:1027B00007B5604601880A0A0230DF2AFAD1C9B299
:1027C000820804D3028840880004104300E00068B7
:1027D000014A5050039007BD841400200148042191
:1027E000014B1847F002002071210010014B1B68BB
:1027F00018470000F0020020014B5B6818470000FA
:10280000F0020020030010B508001B681100984773
:1028100010BDC046F8B54746CE4680B5437C07009C
:102820000D001600002B37D000240020002A1EDDEA
:102830004B1E98461B4B9946002C2BD043461B5DE4
:102840000D3B5A425341DBB22A5D0A2A13D00134B0
:10285000A642F1DC864203DD311A3B68281898470E
:10286000AD19013D2B780D3B5A4253413B740CBCD2
:1028700090469946F8BD002BE9D1A04203DA211A0F
:102880003B6828189847484602213B68013498471E
:102890002000DDE73B7CD7E703681100280098475C
:1028A000E5E7C046B4570010F0B557464E464546DA
:1028B000DE461C00D023E0B51B061F68354B83B0F5
:1028C00006000D00180001A991469A4602F018FE74
:1028D0008046002808D1019B7FB29F4204D0504619
:1028E00002F01EFE012398466B1C03D1300002F05B
:1028F000BDFD0500002C2AD1274F284B1C68002C59
:1029000018D04B46002B24D1254B994602E0E468B1
:10291000002C0FD02368002BF9D04B461B68002BEE
:1029200001D0A342F3D120002A003100B847E46867
:10293000002CEFD14346002B28D1681E8541E8B218
:1029400003B03CBC90469946A246AB46F0BD154F3D
:10295000D3E7134B99460A239B4602E0E468002C18
:10296000E8D02368002BF9D04B461B68002B01D020
:10297000A342F3D12A0031002000B8475A466B46E3
:1029800020001A7101A90122B847E7E7504602F07A
:102990009FFDD2E740030020152800100406002008
:1029A0000806002005280010F0B54746CE4680B541
:1029B00083B06B46DF1CD02338701B061C68204B8D
:1029C000060001A91800984602F09AFD051E22D0C3
:1029D0001C4B1C68002C2AD01B4B994602E0E46873
:1029E000002C10D02368002BF9D04B461B68002B1D
:1029F00001D0A342F3D1200001223900FFF70AFFE2
:102A0000E468002CEED1002D11D1300003B00CBCD5
:102A100090469946F0BD019B64B29C420BD0404663
:102A200002F07EFD074B01251C68002CD4D14046E6
:102A300002F04EFDE9E7034B1C68002CCCD1E4E723
:102A400040030020040600200806002070B50400A2
:102A500002F00CFD00230100050001222000FFF719
:102A600023FF084B1C68002C06D06368002B05D0A0
:102A70009847E468002CF8D1280070BDE468002C69
:102A8000F3D1F9E7040600200D4A1368002B13D098
:102A9000834202D109E0984208D01A00DB68002B7B
:102AA000F9D1002900D0D06070471A000029FBD16D
:102AB000DB68D360C160F7E70029F5D01060F3E769
:102AC00004060020F0B50D1E15DD0E4B0D271A680B
:102AD0000D4B4519D31859424B410C495B005E5EC2
:102AE00020210478A64207D093691942FCD1013015
:102AF0001460A842F5D1F0BD93691942FCD117606A
:102B0000F2E7C0464C0A00200080FCBF8013002082
:102B100030B50500002912DD00201024094B013DCD
:102B20001A6893691C4208D1013093691C42FCD198
:102B300013682B548142F4D130BD0028FCD103200E
:102B40004042F9E74C0A002070B51C000A4B150002
:102B50001860FDF72FFF002D03DB02212800FDF791
:102B600003FE002C03DB02212000FDF7FDFD012107
:102B70000248FFF789FF70BD4C0A002000030020C7
:102B800010B5114C114B22689A4210D1104B62685B
:102B90009A420CD10F4BA2689A4208D100230E48EA
:102BA0002360FFF7D5FA0021030000209847074B68
:102BB00000212360064B09486360064BA360FEF7C3
:102BC00081FB0023236010BD60030020DE8116F02E
:102BD000299B72BD7ABE59D355420000400D0300B7
:102BE00010B51920FDF71EFED0238022E1211B061F
:102BF00092045A620448054B0022186049020123DE
:102C0000FFF7A2FF10BDC04600400340480A002065
:102C1000D02380221B069204002801D05A617047FD
:102C20009A61FCE7F0B5982357464546DE464E4686
:102C30006F4AE0B5D75880253C006D02883B9A4624
:102C400083B02C402F420FD001222321694B00205A
:102C50005A54DA70684901F053FA8022674B9202A5
:102C60001A65674B2C009A46FB0617D480235B013C
:102C70001F4245D18023DB011F4200D08EE080231C
:102C80001B021F4200D097E0BC4200D0ABE003B073
:102C90003CBC90469946A246AB46F0BD544B9B6D5A
:102CA0009846002B27D0554B00259B46012399467B
:102CB00043460126B8461F0004E001357600EDB218
:102CC000202D17D03742F8D05B469E654B466C08E6
:102CD000AB436400E418474B64019C466444200005
:102CE00000F094FB002872D10135B743EDB27600B5
:102CF000002FE5D1474680235B0154461F42B9D0DF
:102D00001C4300233C4A3A4D00212B609360D36062
:102D10003C4A3D489360D3603C4A9360D3603C4A50
:102D20009360D3603B4A9360D3603B4A9360D36027
:102D30003A4A9360D3603A4A9360D360394A9360C9
:102D4000D360394A9360D360384A9360D360384A7D
:102D50009360D360374A9360D360374A9360D360FF
:102D6000364A9360D360F0229200FFF73FFD344B68
:102D7000344A00211A600020012201F097F98022D4
:102D80001E4B12031A65EB6CDB0300D472E702F0F2
:102D900037FB8023DB011F4200D170E701220421B1
:102DA00000201C4301F0F2F81022144B1A65802316
:102DB0001B021F4200D167E70122052100201C43AE
:102DC00001F0E4F880220D4B12011A655CE74B46D6
:102DD000A28AA17800200093002301F0B9F9200015
:102DE00000F052FA80E7210017487940FEF70AFE0A
:102DF000000011501006002000001050003011504B
:102E00001000010008001050500600201000105063
:102E100018001050200010502800105030001050A2
:102E20003800105040001050480010505000105012
:102E30005800105060001050680010507000105082
:102E4000140A002080011050F457001010B5012121
:102E50000520FEF759FF10BD10B5002200210248E1
:102E600000F038FA10BDC046300600208022024B28
:102E70005202DA647047C04600201150F0B5C646D1
:102E800000B5060000F0DAF90C23364D0520AB67DB
:102E90003549FEF753FF40239846344C4022002129
:102EA0002000FFF7A3FC4146002301270022212038
:102EB000A1832F4967706380A277A1600B602254C1
:102EC0005F3060844046A0870238225429492A4A4C
:102ED0006360E160A2621360284A6362E16293600A
:102EE000D360274A20009360D360264A0021936074
:102EF000D360254A40309360D360244A9360D36006
:102F0000234A9360D360234A9360D360224A93603C
:102F1000D360224A9360D360214A9360D360214AF0
:102F20009360D360204A9360D360204A9360D3605B
:102F30001F4A9360D3601F4A9360D360F0229200CF
:102F4000FFF754FC1C4B1D4A30001A6080239B0580
:102F50002F64EB6490231A4AEA50FFF787FF04BC02
:102F60009046F0BD00001150252C001010060020E6
:102F700084001050000110508000105000001050CC
:102F80000800105010001050180010502000105071
:102F900028001050300010503800105040001050E1
:102FA0004800105050001050580010506000105051
:102FB0006800105070001050140A0020800110505A
:102FC00010D001000B785B0602D14B78052B00D0A6
:102FD00070478A78014B1A60FAE7C046000011502A
:102FE000F0B5CE464746072380B548798E780A79F2
:102FF0000340C8787F21800731401B02F409134346
:103000004F00820F944691462A4D3A195201AA1850
:103010009670012666405670604600269383D670EF
:103020009077CA00012C29D0234884468801624445
:103030008446AC44604682601660002929D01F4A4D
:10304000C9009046414441603F223F3393434A4682
:10305000022A00D15B001A493F190A687F01D31880
:103060000B60184BED195340EA604A46900618432E
:1030700080231B0618436B68186010E012488446D2
:10308000880162448446AC4460468262166000292E
:103090000AD1002364012D196B600C4BEB600120F9
:1030A0000CBC90469946F0BD064AC9009046414482
:1030B0004162C9E71006002084001050040010503F
:1030C000140A002000001050800010500001105021
:1030D00000231C4A10B59360D3601B4A0021936003
:1030E000D3601A4A1A489360D3601A4A9360D36037
:1030F000194A9360D360194A9360D360184A936069
:10310000D360184A9360D360174A9360D360174A1C
:103110009360D360164A9360D360164A9360D3607D
:10312000154A9360D360154A9360D360144A936044
:10313000D360F0229200FFF759FB124B124A1A603B
:1031400010BDC04600001050080010501000105074
:103150005006002018001050200010502800105079
:1031600030001050380010504000105048001050EF
:10317000500010505800105060001050680010505F
:1031800070001050140A00208001105010B57F20EC
:103190000C0020404000E409110000191A00034B04
:1031A0004001C01800F096F8012010BD1006002064
:1031B0007F23180010B508400B420BD0C9098022AC
:1031C000400040180649400140181201002100F05B
:1031D00061F810BD0223034AC9095B1A9366EEE742
:1031E00010060020002011507F23180010B5084061
:1031F0000B4200D110BD00234000C909411804480A
:103200004901401800220349C37000F043F8F1E778
:1032100010060020FFF7FFFF7047C0467F2110B562
:103220008078044AC3099B0001409A580248FEF77F
:10323000E9FBC046140300200858001080220D4B03
:10324000520410B51A600C4B0C491A6010008B68C0
:103250009843FBD10A4C9C2200212000FFF7C6FABC
:103260008022002152010748FFF7C0FA0923636753
:1032700010BDC04600E0004000F0004000C000402B
:103280000000115000001050002303744382838219
:103290008361704710B58368002901D01C68214004
:1032A000002A11D08024E400114322420CD01A6875
:1032B00022420BD1064A0A401A60FFE7FFE7FFE708
:1032C000FFE7FFE7FFE78368196010BDFFF7A6FF80
:1032D000FFFBFFFFF0B5C646002300B58382013334
:1032E0000374436804001E68838B81611F1C934232
:1032F00000D9171C8025BFB2D21BE37892B2ED0033
:1033000062823D43002B02D09025AD013D43012058
:103310004340E3706378002B51D0002A1DD1A023D5
:10332000DB011D43354B1B6C354B33408026B60506
:103330001E436368A2681E6013685B055AD4314B54
:103340002B401360FFE7FFE7FFE7FFE7FFE7FFE73B
:10335000A3681D6004BC9046F0BD80235B011D4343
:10336000264B1B6C9B0703D4A378DB09012BDBD115
:10337000A38B191C934200D9111C80278BB2FF002C
:10338000D21A98461F43E37892B26282002B03D090
:1033900090274146BF010F4301214B40E370637802
:1033A000002B19D0002A02D18023DB011F43164BCA
:1033B0003F043340A026F6053D431E43B9E73A00DB
:1033C000E068FFF719FAA369628A9C468023674484
:1033D0001B02A7611D43A0E7E0684246A169403097
:1033E000FFF70AFAA369628A4344A36180231B02A0
:1033F0001F43D7E72000FFF711FFC0460000115020
:10340000FFFFFFAFFFFBFFFFFFFFFFDFF0B5C6468B
:1034100000B5067C0400002E00D1D3E083681A6852
:103420001D684378AD05AD0D002B51D1838AEB1893
:103430009BB28382A18B8D4207D200236382636893
:103440001B68300004BC9046F0BD626812685200F0
:1034500002D58D4200D175E0638A002BF1D06268FD
:103460001F1C16688B4200D90F1C8025BFB2DB1BC6
:10347000E2789BB2ED0063823D43002A02D09025A2
:10348000AD013D4301214A40E2706278002A68D0D4
:10349000002B2AD1A023DB011D434F4B1B6C4F4B4C
:1034A00033408026B6051E436368A2681E60136819
:1034B0005B0500D58DE04A4B2B401360FFE7FFE72B
:1034C000FFE7FFE7FFE7FFE7A36800261D60B8E717
:1034D0002A00C1688069FFF78FF9A38AA269EB18F7
:1034E0009BB25219A382A261A4E780225201154324
:1034F000394A126C920703D4A278D209012ACED19C
:10350000A28B111C9A423FD880278AB2FF009B1AD7
:1035100090461743E2789BB26382002A2FD10121A3
:103520004A40E2706278002A3ED0002B02D180230C
:10353000DB011F432B4B3F043340A026F6053D43E0
:103540001E43B1E7A26815686278AD01AD0D002A8F
:103550001CD1EB18A3828D4200D37DE70023638248
:103560006FE73A00A169E068FFF746F9A3699C4656
:10357000802367441B021D43A761638A88E7902765
:103580004146BF010F43CAE7191CBDE7E1682A00A5
:103590004031A069FFF730F9A38AA18BEB18A38211
:1035A000A3695B19A361D6E7E0684246A169403090
:1035B000FFF722F9A3694344A36180231B021F4341
:1035C000638AB2E77F238178074A08481940FEF7EB
:1035D00019FA2000FFF722FE00001150FFFFFFAF95
:1035E000FFFBFFFFFFFFFFDF140300202858001040
:1035F000014B18787047C046510A0020F8B547467D
:10360000CE4680B5294F05003B78002B04D0012021
:103610000CBC90469946F8BD532200212448FFF780
:10362000E5F8244C2000FDF757FF234B1C60234C8A
:1036300020001C30FDF76CFF200001F0F9FD204B4D
:10364000204E1C60204B9846002B04D0300000E038
:1036500000BF1E4B1860424600243378002A1DD05C
:103660001B4A9046194A91469C4210D31BD14346AF
:10367000984701343378E4B2A342F5D22800FFF72B
:10368000FDFB2800FFF7E2FB01233B70BFE74A4642
:10369000630012681B19DB009B58E9E700F09AFFF2
:1036A0003378002BEAD000231B68FFDE510A00208C
:1036B0002C050020E4040020800500201C030020CD
:1036C00084050020500A0020000000008C04002027
:1036D000D5450010F0B5DE4657464E464546E0B5A6
:1036E00089B001F07BFB002800D147E1C44BC54DF8
:1036F0009B4605AC2E68F269EFF3108372B6116831
:103700000029FCD0BFF35F8F33622100300001F04D
:1037100007FCF269336ABFF35F8F0021116083F306
:103720001088002800D129E16378082BE2D8B64A36
:103730009B00D3589F466368002BDBD0A068984756
:10374000D8E77F222179AE4B0A405600C8099B1961
:103750001B18180001273030C678BE43C670C678E3
:103760000337BE43C670002A00D10EE1A74ADB7CB6
:10377000002A06D0A64A1278934200D293E19B1AFF
:10378000DBB2002B00D0F9E0A24E62792078A3686A
:10379000B047AFE75B4601221B78012113435A462D
:1037A000137033235846D25C5E468A43C254C25CCF
:1037B00004208243F2540133F25C27788A43F254A6
:1037C000F25C8243F254002000F0EAFD602223798B
:1037D0001A40602A0DD0402A00D1F3E0DB06DB0E50
:1037E000012B00D16AE1022B00D123E1002B00D193
:1037F000F7E020780021FFF7DBFC80212078FFF73D
:10380000D7FC77E77E4B1B78DB0700D472E7824B4F
:10381000002B00D16EE7FCF78FFD6BE7784B1A7831
:10382000D20700D466E77D4A002A00D162E7187803
:103830000007C00FFCF778FD5CE7754E734A002760
:103840003378002A00D1B7E0754A9046BB4209D8C8
:10385000BB4200D0B3E00137FFB29F4200D949E735
:10386000BB42F5D9414609687A008C46D219D2008C
:1038700062445269002AEED02078904701373378AD
:10388000FFB29F42E2D935E72378614E5F4A9846FE
:1038900000273378002A00D186E0624A9146604AC8
:1038A0009246320046469046BB425ED800D078E051
:1038B0004B4630009847434601371B78FFB2BB4266
:1038C000F2D24F4E532200213000FEF78FFF10221C
:1038D000FF21F01CFEF78AFF30002022FF21133069
:1038E000FEF784FF00F052FD4F4B002B00D101E7A3
:1038F000FCF714FDFEE62378454E444A984600271F
:103900003378002A47D0474A9146454A92463200CA
:1039100046469046BB421FD843D14B46300098479D
:10392000434601371B78FFB2BB42F3D2344E5322D9
:1039300000213000FEF75AFF1022FF21F01CFEF795
:1039400055FF30002022FF211330FEF74FFF00F01B
:103950001DFD2379B370CDE6524612687B00944674
:10396000DB19DB0063445B68D8E7524612687B00D2
:103970009446DB19DB0063445B689AE709B03CBC02
:1039800090469946A246AB46F0BD62792078A3687E
:1039900000F01AFDAEE6404600F062FE3378002BE0
:1039A000C4D000235B68FFDE404600F059FE337848
:1039B000002B00D185E7F4E7002B00D19AE6002325
:1039C0005B69FFDE1948002800D112E700F0E8FC2F
:1039D0000021380006AA00E000BF002800D089E6D8
:1039E00007E7202A00D19EE0002A00D001E7637992
:1039F000092B00D9FDE60E4A9B00D3589F46C046CE
:103A00002C050020840500205C58001000000000F8
:103A1000500A0020A94B00103903001029030010A0
:103A20008C040020614600101D03001000000000FF
:103A3000805800107023217A0B4200D0D9E6C809C3
:103A400084460F330B405B00F018C84E6044C07CC6
:103A5000002E06D0C64E3678B04200D284E0801BDD
:103A6000C0B200287CD1002A70D1C24E6279924641
:103A700002229046524640468243012A00D119E173
:103A80005246002A00D0B4E65B4463443033DB780E
:103A900004AA9B07DB0F023213803800022306A919
:103AA00000F018FC26E65A00D318B34ADB0012686F
:103AB000D318002B00D161E71E6966E6237A0F2B2D
:103AC00000D996E6A94A5B44DB78002A05D0A84ACB
:103AD0001278934256D39B1ADBB2002B00D088E6B3
:103AE000A648A44E00F05CFC00213800F36806AA4A
:103AF0009847002800D0FDE56022160023791E407B
:103B00001A4200D075E663790A3B012B00D970E6B2
:103B100000F046FC63790A2B00D11EE1380006A9AB
:103B200000F0C0FBE6E5237A0F2B00D961E68F4A4F
:103B30005B44DB78002A06D08D4A1278934200D28B
:103B4000DCE09B1ADBB2002B00D052E68B48894E9A
:103B500000F026FC00213800F36806AA98473CE7ED
:103B60000026002A82D044E646003018824EC0006B
:103B700036683618002A00D178E7002E00D138E6E2
:103B8000F068E5E77C4A5E00F3181668DB00F6187B
:103B9000002E00D12DE6F068A4E7A2790192737897
:103BA0009A4207D07378002B00D053E1019B002B81
:103BB00000D0EDE05B46019A380006A95A7000F08B
:103BC00071FB97E5E388012B00D012E608223378D9
:103BD00093435A461370A1E70220317804AB9A1C34
:103BE0008B068908DB0F01400B4355E7737804AA65
:103BF000023213703800012306A900F06BFB79E54F
:103C0000E088030AC0B20F2B00D9F2E55C499A00A4
:103C10008A58974606A800F0C9FB3800A179FFF73B
:103C20001BF9022233781343337063E5E388012BD9
:103C300000D0DEE5082233781343CAE7514B002B4E
:103C400000D1D6E500E000BF021E00D1D1E538006A
:103C5000137806A900F03EFBBFE62189FCF746FD7C
:103C6000021EF4D1C5E5022B00D17DE1464B002BAD
:103C700000D1BEE500E000BF0200002A00D1B8E597
:103C8000D37891781B020B43380006A900F022FB81
:103C9000A3E6FCF723FD1223020006A9380000F07A
:103CA00019FB9AE6394B002B00D1A2E500E000BFDA
:103CB0000200E5E7E288002A0BD152465B446344E8
:103CC000012A25D03022904698444346DB789B0752
:103CD00034D5002E00D10DE5F06800F061FBF368EB
:103CE00006AA002138009847002000F059FB342331
:103CF0005A46D35CDB0700D5FCE40FE71E4A5E00A2
:103D0000F3181668DB00F618002E00D171E537E7CE
:103D10002F32914699444B46DB789B07D9D5380022
:103D2000FFF762FA4B464246DB7893434A46D3702C
:103D3000D378524693434A46D370CAE73800FFF718
:103D400037FA43460222DB7813434246D370D378D6
:103D5000012213434246D370BBE704AB9A1C3800E0
:103D6000012306A9167000F0B5FAC3E400000000B4
:103D7000500A0020E85800108C040020C9460010AA
:103D8000A858001000000000000000000000000023
:103D9000581EC0B2FCF7A6FC002800D129E54378E4
:103DA000022B00D025E50121C279BA4693115211A8
:103DB0000B400A4012015B0113435A4612782F311F
:103DC0008A4313435A461370092398468044474652
:103DD000C37882781B021343C3180293029BBB4231
:103DE00000D8B9E001227B7800920B2B04D1FB783C
:103DF00000933B78FF187B78042B00D0F9E4029BFA
:103E00005B4ADB1B9BB298465A4B00261B78002A64
:103E100013D160E0B3426FD1574B42463900504650
:103E20009847082802D94346834268D2514B01364D
:103E30001B78F6B2B34200D2DBE4B342EAD94F4B6F
:103E40001B680393039A730094469B19DB00634439
:103E50009B68E2E73800FFF73BF9B378444A454EE8
:103E60009A4600213378002A2ED0444A90463200E8
:103E70000E009146B3421ED800D092E5404B380068
:103E800098474B4601361B78F6B2B342F2D2532222
:103E900000215846FEF7AAFC5B461022D81CFF21E1
:103EA000FEF7A4FC2022FF213648FEF79FFC5B466C
:103EB00052469A707AE642461268730094469B19FD
:103EC000DB0063445B68DAE7380000F0C9FB337855
:103ED000002BDCD065E542463900504600F0D2FBAD
:103EE000464681468046082801D9B04228D9214B50
:103EF0001B78002B00D17CE400239B68FFDE009B35
:103F00008146002B0FD0BB78009A9A18D2B204E0F9
:103F10000133DBB2CE709A4205D05946C918C87831
:103F2000FF28F5D065E4330039004A46154800F013
:103F300095FF104B4F441B78B34200D34EE758E433
:103F4000009B0B4E002BDED139004246084B0D483A
:103F500000F084FF474441E70B4B5746002B00D14C
:103F600028E6FCF7D3F925E6FCF7BCFB020084E663
:103F700000000000500A0020854600108C0400203C
:103F8000614600103F0500200D03001030B587B0DA
:103F900005000C000C2200216846FEF727FC6B464A
:103FA0001D705C70042C4FD009D8022C34D0032C27
:103FB00028D13C4B1A78520758D407B030BD052C95
:103FC00020D1384B1A78D207F7D504211A788A43C2
:103FD0001A70354B1C68E269EFF3108172B61368F2
:103FE000002BFCD0BFF35F8F21626946200001F0F7
:103FF00065F8E269236ABFF35F8F0021116083F3E4
:104000001088DAE7284B1C68E269EFF3108172B67A
:104010001368002BE6D1FBE70121224B1A788A4373
:104020001A701A780331A2431A7000225A701A7853
:104030008A431A701C4B1C68E269EFF3108172B658
:104040001368002BCED1FBE7164B1A78D207B4D5F4
:1040500004211A780A431A70134B1C68E269EFF3C3
:10406000108172B61368002BBCD1FBE704211A78CB
:1040700003A88A431A7000210C22FEF7B7FB6B4697
:104080006A461D7305235373074B1C68E269EFF3FF
:10409000108172B61368002BFCD0BFF35F8F2162D2
:1040A00003A9A3E72C0500208405002070B584B087
:1040B00001AC06000D000C2200212000FEF796FB4B
:1040C000012363700D4B25711D682670EA69EFF3BB
:1040D000108372B611680029FCD0BFF35F8F2B628A
:1040E0002100280000F0EAFFEA692B6ABFF35F8F26
:1040F0000021116083F3108804B070BD8405002096
:10410000002330B585B001AD6B80287006330822DE
:1041100002A86B70FEF770FB0C4B1C68E269EFF3B2
:10412000108372B611680029FCD0BFF35F8F236241
:104130002900200000F0C2FFE269236ABFF35F8F0D
:104140000021116083F3108805B030BD8405002084
:10415000F0B5C646804600B584B001AC0F0016002D
:104160000021082220001D00FEF740FB434623707B
:10417000072363700F4B65711D682771A660EA699C
:10418000EFF3108372B611680029FCD0BFF35F8F84
:104190002B622100280000F091FFEA692B6ABFF32F
:1041A0005F8F0021116083F3108804B004BC904637
:1041B000F0BDC04684050020702270B58B780500E4
:1041C0000C001A4201D0002070BD064B20009978E7
:1041D00000F008FE0028F6D021002800FEF700FFBE
:1041E000F2E7C0462C05002070B57F240C40650026
:1041F0000E4C06006419C80924183034E5780020F4
:10420000ED0700D570BD0125E0782843E07030004F
:10421000FEF7BCFF0028F5D10122E3789343E37059
:10422000E37803329343E370ECE7C0462C050020AB
:1042300010B57F240C406300094CCA09E418A41887
:104240003034E3789B0700D410BDFEF7CDFF022287
:10425000E3789343E370E378013A9343E370F3E741
:104260002C0500200D4B10B50C00002B15D0FEF7CF
:10427000D3FF7F21022221404B000949E409C918DC
:1042800009193031CB789343CB70CB78013A934303
:10429000CB70CB7803329343CB7010BD1932001032
:1042A0002C05002070B50A4E0500082230000C00D5
:1042B000FEF7A2FA002161560023C943C90F280066
:1042C000F3600022C901B360FFF78EFF70BDC046E6
:1042D00090040020F8B5CE4647469046294E80B55A
:1042E0008146082230000D001F00FEF785FA434684
:1042F000B3600023F381EC79AB7924021C43231CC7
:10430000BC4200D93B1C9FB2B381002C12D0002FBD
:104310001ED04346002B32D03B1C402F1ED89FB2EC
:1043200033787F2B1FD80021174A3B004846FFF700
:104330005BFF09E0002169560023C943C90F002231
:104340004846C901FFF750FF0CBC90469946F8BD9E
:1043500033787F2B10D980210022E6E740239FB2DB
:1043600033787F2BDFD9084C3A0041462000FEF716
:1043700043FA80212200D8E700210022D5E700205F
:10438000E2E7C04690040020EC04002010B514229F
:1043900000210248FEF72AFA10BDC0469004002012
:1043A000014B18617047C0469004002010B5054CC1
:1043B000010008222000FEF71FFA0023A360E3603B
:1043C00010BDC04690040020F8B53A4C1D0023787B
:1043D0000600DA09C9098A4213D00020002D00D056
:1043E000F8BD354B002B03D021003000FEF7EAFD6D
:1043F0002369002B43D0220002213000984701207E
:10440000EEE77F2B06D8A068002836D02A002B497B
:10441000FEF7F2F9A368E28959195219E38892B2BA
:10442000E281A160934214D03F2D12D9A589A81A28
:10443000071C80B240282ED82378BFB27F2B2CD8FF
:104440000021AA4234D01D4A3B003000FFF7CCFEC9
:10445000C6E72369002B05D02200012130009847D0
:1044600000280ED0002161560023C943C90F002245
:104470003000C901FFF7B8FEB2E70020B0E7012025
:10448000AEE700213000FEF793FE30008021FEF7FA
:104490008FFE0120A4E74027CEE7AA4207D0074CB1
:1044A0003A002000FEF7A8F980212200CCE7802105
:1044B0000022C9E790040020C52F0010EC04002062
:1044C000F0B5304C0600636883B0002B21D0628ABF
:1044D0001978083A9A185B18D97998790902014332
:1044E0005B189A4215D90025207B03E019785B18E8
:1044F0009A420ED959780429F8D1D9780029F5D1F2
:104500009978814208D0197801355B18EDB29A424A
:10451000F0D8002003B0F0BDE3695B5D002BF8D05C
:10452000194A002A06D000213000227AFCF742F80E
:104530000028EED0154F380000F0E2FC3C3F7B89AC
:104540001F1C83421BD82000BFB23A00E16D3C30F3
:1045500000F034FD3B003000217AE26DFFF744FEAD
:104560000028D6D00A4B002BD4D0E269237A525DC2
:10457000390000923000002200E000BFCAE7071CAB
:10458000E1E7C04634210020B5050010702100206D
:104590000000000010B5002807D105484368002B33
:1045A00003D0203000F00AFD00E0002010BDC0461E
:1045B0003421002010B5002807D105484368002B9E
:1045C00003D03C3000F0B8FD00E0002010BDC04634
:1045D0003421002070B5194C82B0602200212000E7
:1045E000FEF704F9164B0125636140232000C22227
:1045F0002376144B1449E3619200012300953C306B
:1046000000F042FC114E3000FCF766FF26652000EA
:104610000026C2220E4B0F49E36566650123009513
:10462000D200203000F030FC0B4D2800FCF754FF86
:104630000A4B6663A563A36502B070BD34210020F8
:10464000E41D0020E01D0020942100202C210020EA
:1046500044160020C8170020D81D0020241E00206A
:1046600010B5074C142200212000FEF7BFF82000EF
:104670003C3000F0DDFD2000203000F0D9FD10BD01
:10468000342100204A79030010B50020012A02D10C
:104690008A79012A00D010BDCA79202AFBD10A7973
:1046A000012AF8D0CA78002AF5D1064A5468002CAD
:1046B000F1D113709C2331305B0051605382FF3085
:1046C000E9E7C04634210020F0B54E464546DE46B7
:1046D0005746E0B50600150083B0002909D0012037
:1046E00001293DD003B03CBC90469946A246AB465A
:1046F000F0BD602311781A000A4090460B422BD17E
:104700006B780A2B00D190E00B2B27D1B54F7C683A
:10471000002C23D0798A237808396118E418E379CA
:10472000A2791B021343E418A14217D92B79AC4696
:1047300042461D0003E02378E418A1420ED96378B5
:10474000042BF8D1E378002BF5D1A078A84200D152
:104750008FE00132D2B2EEE7202A32D00020C1E74A
:1047600013781F22190091432029BBD1DB06DB0EF1
:10477000012B00D155E1022BF0D19B4B2879002B66
:10478000ECD0984F7B68002BE8D01A78798A5918BA
:104790009B18DA799C79120222439B18994204D81B
:1047A000DCE71A789B189942D8D95A78052AF8D1AB
:1047B0009A788242F5D1290030007A6900E000BF82
:1047C00090E76B792C791B02CA062343D20E012A8B
:1047D00000D1D9E0022AC1D1824F7B68002BBDD025
:1047E000788A1A78804698449B189A79944660464D
:1047F000DA79120202439B189845AFD9404603E08C
:104800001A789B189842A9D95A78052AF8D19A782B
:10481000A242F5D149B2002900DA83E12900300033
:104820003B7E7A69FFF756FD5CE76E4F7B68002B95
:1048300094D0798A1A78083959189B18DA799879B6
:10484000120202439B18994288D94446287904E011
:104850001A789B18994200D880E75A78042AF7D131
:10486000DA78002AF4D19A7882427AD00134E4B21C
:10487000EEE7AA4665469046EA789946AB7812027A
:104880001A433B7B9346534500D110E13B7C534593
:1048900000D123E15B464146DAB2FB6950465A54E7
:1048A00079687B8A8846083B98444146A04504D8ED
:1048B00064E02378E418A14260D96378042BF8D12E
:1048C000A3788342F5D1E3789342F2D123798246EB
:1048D00088460193002B51D0A14200D83EE72378AF
:1048E000E418019B4B4545D9A04500D836E76378CD
:1048F000052BF4D121003000FFF75EFC002800D129
:104900002CE7A37830009B461900FFF791FC5B462B
:10491000DB09012B00D10EE15B467B735346072177
:104920003B74637922790B401B0213432F4AFB81AE
:10493000002A09D029003000FBF702FE002800D130
:104940000CE77B7B9B46FB8959463000BA6DFFF72D
:104950004BFC002800D101E74B460133DBB29946FE
:10496000BDE7A046FA690123290030004244FFF761
:10497000B1FCB7E6019B4B4500D0EFE629003000C3
:10498000FFF790FC0120ADE61B0A1BD0154FDBB2F0
:104990007A68002A00D1E1E69078A04200D0DDE6F6
:1049A00010781218D479907924020443141903E082
:1049B000D078984200D1A8E0107812189442F7D825
:1049C00000208FE6074F7B689C46002B00D1C5E690
:1049D000788A08386044834200D3BFE68C461900C9
:1049E0000BE0C0463421002000000000410500100B
:1049F0001A789B18984200D8B0E65A78042AF7D162
:104A00008A78A242F4D1614649B2002900DB05E769
:104A10005D4B002B00D1A1E62900300000E000BF73
:104A200060E669792C7900291FD0584A002A00D104
:104A300094E6574FC9B27B68002B00D18EE69A7876
:104A4000A24200D08AE61A789B18D8799A79000297
:104A50001043181803E0DA788A4200D18DE01A7802
:104A60009B189842F7D800203CE64A4B002B00D117
:104A700074E6474F7868002800D16FE6798A0839D4
:104A80004118884200D369E6030004E01A789B18B5
:104A9000994200D862E65A78042AF7D18278A24275
:104AA000F4D1290030007A6900E000BF1AE64B46D5
:104AB00030003B73397AFFF7D5FB38003C3000F00B
:104AC000B7FB354B002B06D029003000FBF728FD43
:104AD000002800D142E600233B72D7E600233000D5
:104AE0003B74797BFFF7BEFB3800203000F0A0FB61
:104AF000294B002B06D029003000FBF711FD0028C0
:104B000000D12BE600237B73C4E649B2002900DB09
:104B100084E6224B002B00D120E629003000FBF771
:104B200013FCDFE51E4B002B00D117E629003000F7
:104B300000E000BFD6E53022E3781A4200D00BE750
:104B40005B463B72534607213B73637922790B40E6
:104B50001B0213437B81134B002B06D0290030002E
:104B6000FBF7EEFC002800D1F8E53000FFF7A8FCC9
:104B7000002800D0F0E60020B4E5290030007A6972
:104B8000FBF780FCAEE5C046000000008504001085
:104B9000342100200000000021050010490300100E
:104BA0000000000041050010F0B54746CE46002247
:104BB00080B53C4E0700307A904683B0884268D07A
:104BC000727B8A422ED1384A9146002A30D07468CE
:104BD000002C27D0708A2578083820186419A57908
:104BE000AC466246E5792D0215436419A04219D9F5
:104BF000327C94460022904603E025786419A04256
:104C000010D96578042DF8D1E578002DF5D1A57877
:104C1000654510D045460135EDB2A84625786419A2
:104C2000A042EED8002003B00CBC90469946F0BDDF
:104C30001E480028CBD19CB24B46002B0BD04246DD
:104C4000F36938009B5C002200930B002100FBF706
:104C5000A3FC0028E6D030002200B16D203000F027
:104C60006BFA0028DED03800F389717BB26DFFF754
:104C7000BBFA0028D6D00D4B002BD4D04146F269A8
:104C8000737B525C380000922100002200E000BFDC
:104C9000C9E7F269002A00D192E73800FFF710FC5B
:104CA000C1E7C04634210020990500100000000033
:104CB000F8B5DE46574645464E460C788246E0B586
:104CC00093460D0000207F2C3AD94F790A793F0294
:104CD000E4061743E40E012C3AD0022C30D13B4FAE
:104CE0007C68002C2CD0798A88462178A0448C4698
:104CF0006444A1798946E17909028C4649466646B1
:104D000031438C466444A04504D819E02078241827
:104D1000A0451BD960780528F8D1A0789042F5D13C
:104D20003A7E141C9A4235D8A4B2220059467869BA
:104D3000FDF762FD2300290050467A69FFF7CAFAA1
:104D40003CBC90469946A246AB46F8BD0020F7E72A
:104D50003F0A21D0F9B21D4F894679688C46002957
:104D6000EED08C789442EBD1624612786244D179CD
:104D7000947909020C4311781419884642449442EC
:104D800004D8DDE7107812189442DFD9D07848456E
:104D9000F8D1C5E71C1CC7E70C4F79688C46002981
:104DA000CED07C8A083C6444A142C9D2080004E009
:104DB0000178884640448442C8D941780429F7D113
:104DC000614689789142F3D1AAE7C0463421002098
:104DD00010B50020FEF712FC10BDC04610B5FEF75E
:104DE00007FC10BD072210B5447903792240120256
:104DF0001A43C3789B079B0F022B05D0032B15D0BA
:104E00000020012B08D010BD02291CD00020402317
:104E100093424041C0B2F6E702394B4259410D4B33
:104E20009C46614491424041C0B2ECE702394B429A
:104E30005941F023002049429B00194040319142E2
:104E40004041C0B2DFE7044B9C46624450425041AF
:104E5000C0B2D8E7FF03000000FEFFFFF0B5002A54
:104E600011D000247F274D78052D06D13D008E7886
:104E700035406D00F6094519AB550D786419A4B29B
:104E80004919A242EFD8F0BDF0B5C64600B51500ED
:104E900006AA1E001378802204000F009846120212
:104EA00095422AD84069002803D00121494200F0E8
:104EB0002FFBA069002803D00121494200F028FB04
:104EC0004346A5806D00ADB223726B1EA381002303
:104ED00060696D42E3812760E68065812382002856
:104EE00001D000F0F5FAA0690124002801D000F0FB
:104EF000EFFA200004BC9046F0BD0024F9E7C0465C
:104F0000C189028A8B1A9BB2914202D242899B1AB2
:104F10009BB28288101C9A4200D9181C80B270473C
:104F200070B5040080690D00002803D001214942BA
:104F300000F0EEFAE089218A86B2421A8BB292B270
:104F4000884202D26189521A92B2A088904207D256
:104F500086422CD262898218B21A92B22282020050
:104F6000002A02D11CE01B1A9BB29842FBD9E288AE
:104F7000216853432800C918FDF73EFC228A012509
:104F8000531C9BB29A420ED9002362899B189BB294
:104F9000A0692382002801D000F09AFA280070BD91
:104FA0000025238A9BB2A2899A42F1D2EDE7321AF8
:104FB000A18992B29142D1D2CCE7C046F0B54F461A
:104FC0004646D6460400806988469146C0B500280A
:104FD00003D00121494200F09BFAE289238A91B271
:104FE000D61A9DB2B6B29A4202D26389F61AB6B206
:104FF000A788B74209D2B94254D26389FB18CB1AA9
:105000009BB23E002382258AADB2002E50D04B4683
:10501000B14545D89EB2AF4203D8ED1BADB2AF4209
:10502000FBD9E388781B19009946236869439C469D
:1050300080B26144864225D94B46584383B21A0058
:1050400040469A46FDF7D8FB4B464046F71BED1904
:105050005D432168AAB25044FDF7CEFB228A931922
:105060009BB29A4218D962899B189BB2A06923828D
:10507000002801D000F02CFA30001CBC9046994664
:10508000A246F0BD4A4640467243FDF7B5FB228A70
:1050900093199BB29A42E6D8A2899A42E6D2E2E7F5
:1050A000331CB7E7CB1BA2899BB29A42A9D2A4E7D3
:1050B000238AA2899BB29A42D8D2D4E7F8B50400D9
:1050C00040690E00002803D00121494200F020FA77
:1050D000E289218A95B2531A9BB2914202D9628920
:1050E0009B1A9BB2A2889A4221D02B00954203D3EF
:1050F0009B1A9BB29A42FBD9E28821685343C81895
:105100003100FDF779FB6B1C9BB29D420BD9628984
:105110009B189BB260690127E381002801D000F051
:10512000D7F93800F8BDA2899A42F3D2EFE7277A7F
:10513000002FDAD1F5E7C046F8B54546DE465746BA
:105140004E460400E0B58846151E5AD04069002836
:1051500003D00121494200F0DBF9E789237A228A52
:10516000BFB292B2002B3BD1B91AA38889B2974241
:1051700002D26289891A89B2591A0A1C89B2A942D3
:1051800053D895B2E288EE1A9246B2B291463E00EA
:105190009F4203D3F61AB6B29E42FBD25046226813
:1051A000704394469B1B9BB2524660449D422AD852
:1051B00041466A43FDF720FBEB199BB29F421CD886
:1051C000A2899A4219D36069E381002801D000F0D6
:1051D0007FF928003CBC90469946A246AB46F8BDF4
:1051E000A3889D42CED317000022E188ED1A4D43DB
:1051F0008A46A84491461D00C9E762899B189BB264
:10520000E1E70025E5E753439BB21A0041469B4680
:10521000FDF7F2FA3200534641464A445A432068A9
:1052200092B25944FDF7E8FAC6E72A1C95B2A9E7FD
:1052300010B504004069002803D00121494200F064
:1052400067F9A069002803D00121494200F060F904
:105250000023E3812382A38860695B009BB25A1E0E
:105260005B42A2816381002801D000F031F9A0697E
:10527000002801D000F02CF9012010BD80210B4A3C
:105280004902136D0B42FCD0092304215367084ADD
:105290007733D150074B00201A68074B0021DA679B
:1052A000064B1A68064B1A647047C046000011503E
:1052B000003011500C06002000400140180A002068
:1052C00000C00140F0B5C64600B5102084B0FBF721
:1052D00063FA082869D0364B364FDB6F364E3B6099
:1052E000364B01221B6C01210F203360FBF75EFA65
:1052F00002210F20FBF784FA0822314B03211B689F
:105300000F205A401F2313402E4A1360FBF766FA02
:10531000022204212C4BDA677E3299502B4B743ACF
:105320005A671B6D1B079B0F012B3BD1FBF714FE2C
:105330008046FBF7BDFFFA2204000D000023920017
:1053400012196B41994211D80ED00121029100210E
:1053500001911F4940460091FBF702FE002809DB3E
:1053600004B004BC9046F0BD9042EED901225242F6
:10537000D317EAE7FA2000218000FBF7A3FF802182
:10538000124A4902136D0B42FCD0092304215367D2
:10539000104A7733D1503A68054BDA673268074BC9
:1053A0001A64DDE7FCF746FBC0E70B48FCF72AFB75
:1053B000004001400C060020180A002000C00140F7
:1053C0007C4001407C5001400020115000001150F1
:1053D0007D5200100030115000590010074B10B5DD
:1053E0001B6D1B079B0F03D1FA200021800010BD0D
:1053F000FFF768FF00200021F9E7C04600001150C8
:1054000070B584B0FBF7A6FA012801D004B070BDD6
:10541000FBF7A2FD0600FBF74BFFFA2204000D008C
:105420000023920012196B41994216D813D0012122
:105430000291002101910B4930000091FBF790FD92
:105440000028E3DA032208490B6D9B081A42FBD0BF
:10545000FFF738FFDAE79042E9D901225242D31729
:10546000E5E7C046DD5300100000115010B583077A
:105470000AD00300032102E001330B4205D01A7861
:10548000002AF9D1181A10BD030019680C4A0D4CF6
:105490008A188A4322420FD15968094A04338A186C
:1054A0008A43224208D15968054A04338A188A433C
:1054B0002242F1D000E001331A78002AFBD1E1E763
:1054C000FFFEFEFE80808080F8B5C0460000000030
:1054D00001B40248844601BC604700BFE9010020D6
:1054E00001B40248844601BC604700BF110200209D
:1054F00001B40248844601BC604700BF110200208D
:1055000001B40248844601BC604700BF0901002085
:1055100001B40248844601BC604700BF510100202D
:1055200001B40248844601BC604700BFC1000020AE
:10553000010000CE000000011018000054696E79CF
:105540005553420054696E79555342206865616431
:1055500073657400303030303031000054696E793A
:1055600055534220537065616B65727300000000F3
:1055700054696E79555342204D6963726F70686F3C
:105580006E6500000904000009024101030100806A
:1055900032080B0003010020000904000000010193
:1055A00020020924010002045D000008240A04030B
:1055B00007000011240201010100040200000000A4
:1055C0000000000012240602010F0000000F00007E
:1055D000000F000000000C2403030203000204007B
:1055E000000011240211010200040100000000006B
:1055F0000000000C24031301010011040000000945
:10560000040100000102200509040101010102203A
:10561000051024010100010100000002000000004B
:105620000006240201021007050109840101082572
:10563000010000010100090401020101022005101E
:10564000240101000101000000020000000000062A
:1056500024020104180705010908030108250100B7
:1056600000010100090402000001022004090402F3
:1056700001010102200410240113000101000000B7
:105680000100000000000624020102100705810548
:10569000C200010825010000000000090402020107
:1056A0000102200410240113000101000000010088
:1056B000000000000624020104180705810584018A
:1056C0000108250100000000000000001201000296
:1056D000EF020140FECA1040000101020301000078
:1056E0004E6F207370696E6C6F636B7320617265AF
:1056F00020617661696C61626C650000486172646A
:105700007761726520616C61726D20256420616C27
:10571000726561647920636C61696D656400000085
:105720000A2A2A2A2050414E4943202A2A2A0A00BE
:105730000A0000004861726420617373657274002E
:1057400052656C6561736500626F6F74325F7732AA
:105750003571303830000000312E332E300000001B
:105760007069636F0000000074696E797573625F21
:105770006465765F756163325F68656164736574E3
:10578000000000004E6F762032312032303231007E
:1057900006005250BBFF3CB6605700100600525046
:1057A000E182887F4857001006005250D3F07542BE
:1057B000405700100D0A0000646F75626C6520721E
:1057C00065736574202D3E20424F4F5453454C0065
:1057D0000600525053B4F4A1B85700104C45440091
:1057E0000900525000000002DC570010080052501F
:1057F00012000000556E68616E646C656420495249
:105800005120307825780A006570202564202573A2
:105810002077617320616C726561647920617661C3
:10582000696C61626C65000043616E277420636F70
:105830006E74696E75652078666572206F6E20697A
:105840006E61637469766520657020256420257318
:10585000000000006F757400696E0000F4360010DF
:10586000F6380010883800103A3800101C38001044
:1058700004380010943700104237001036370010FB
:10588000D83B0010C43B0010F23700102C3C001035
:10589000F2370010143C0010003C0010F2370010EA
:1058A000EC3B00109A3B0010F2370010923C0010C5
:1058B000663C00105A3C0010F2370010F23700101E
:1058C0003C3C0010663C0010F2370010F23700102C
:1058D000F2370010F2370010F2370010F2370010E4
:1058E000F2370010A43C0010D545001061460010AE
:1058F00085460010C9460010A94B001000000000AA
:105900004E6F7420657870656374696E6720444DCE
:1059100020746F2062652066756E6374696F6E20F7
:04592000380000004B
:10592400B4020010A80200109C020010905700104E
:10593400900200109C570010A8570010D057001078
:08594400E0570010EC570010C1
:10594C00D02330B500251B0600245D5706E0036804
:10595C00BFF35F8F1C6081F3108820BF0268EFF3E8
:10596C00108172B61368002BFCD0BFF35F8F0379E4
:10597C007F2BECD905710368BFF35F8F00221A608F
:10598C0081F3108830BDC046030010B50068EFF3FA
:10599C00108472B60268002AFCD0BFF35F8F042219
:1059AC009A56002A0BDB00290FD000200A601B68D6
:1059BC00BFF35F8F00221A6084F3108810BDD022D1
:1059CC001206126801201A71F1E70020EFE7C046B9
:1059DC00F0B5C64600B50C00804600F065F8FA221A
:1059EC0006000F00200000230021920000F054F864
:1059FC008019794104000D008F422FD82CD0D02370
:105A0C001B0600261F680CE042461268BFF35F8F2E
:105A1C00166083F310882000290000F04DF8002850
:105A2C0020D143461A68EFF3108372B6116800292F
:105A3C00FCD0BFF35F8F424612797F2AE4D94246ED
:105A4C0017711268BFF35F8F0021116083F3108808
:105A5C00012004BC9046F0BD8642D0D9012464429A
:105A6C00E517CCE70020F4E70268EFF3108172B67B
:105A7C001368002BFCD0BFF35F8FFF230371036807
:105A8C00BFF35F8F00221A6081F3108840BF70470C
:105A9C007047C0460000000001B40248844601BCB7
:105AAC00604700BF1927001001B40248844601BCAE
:105ABC00604700BFB112001001B40248844601BC1B
:105ACC00604700BF0D110010FA00000044AC00004C
